:020000040800F2
:10000000500C002089010008032900085121000834
:1000100001290008C30400080130000800000000A6
:100020000000000000000000000000000729000898
:100030001305000800000000052900080929000830
:10004000A3010008A3010008A3010008A301000800
:10005000A3010008A3010008A3010008A3010008F0
:10006000A3010008A3010008A3010008C5040008BB
:10007000A3010008A3010008A3010008A3010008D0
:10008000D1040008DD040008A3010008A301000852
:10009000A3010008A3010008A3010008A3010008B0
:1000A000A3010008A3010008A3010008A3010008A0
:1000B000A3010008A3010008A3010008A301000890
:1000C000A3010008A3010008A3010008A301000880
:1000D000A3010008A3010008812F0008A301000864
:1000E000A3010008A3010008A301000800F002F822
:1000F00000F03AF80AA090E8000C82448344AAF188
:100100000107DA4501D100F02FF8AFF2090EBAE885
:100110000F0013F0010F18BFFB1A43F0010318473B
:100120004050000060500000103A24BF78C878C1E9
:10013000FAD8520724BF30C830C144BF04680C60ED
:10014000704700000023002400250026103A28BF35
:1001500078C1FBD8520728BF30C148BF0B60704739
:100160001FB51FBD10B510BD00F0E2F81146FFF736
:10017000F7FF03F04DFB00F000F903B4FFF7F2FFC7
:1001800003BC00F001F90000094880470948004716
:10019000FEE7FEE7FEE7FEE7FEE7FEE7FEE7FEE737
:1001A000FEE7FEE704480549054A064B7047000094
:1001B00085290008ED00000850060020500C0020A2
:1001C0005008002050080020032A40F2308010F030
:1001D000030C00F0158011F8013BBCF1020F6244E2
:1001E00098BF11F801CB00F8013B38BF11F8013B73
:1001F000A2F1040298BF00F801CB38BF00F8013B20
:1002000011F0030300F02580083AC0F0088051F88F
:10021000043B083A51F804CBA0E80810F5E7121D9A
:100220005CBF51F8043B40F8043BAFF30080D207B9
:1002300024BF11F8013B11F801CB48BF11F8012B85
:1002400024BF00F8013B00F801CB48BF00F8012BA8
:10025000704710B5203AC0F00B80B1E81850203A32
:10026000A0E81850B1E81850A0E81850BFF4F5AF56
:100270005FEA027C24BFB1E81850A0E8185044BFE0
:1002800018C918C0BDE810405FEA827C24BF51F84D
:10029000043B40F8043B08BF7047D20728BF31F841
:1002A000023B48BF11F8012B28BF20F8023B48BF92
:1002B00000F8012B70474FF0000200B5134694463A
:1002C0009646203922BFA0E80C50A0E80C50B1F1AE
:1002D0002001BFF4F7AF090728BFA0E80C5048BFC2
:1002E0000CC05DF804EB890028BF40F8042B08BF60
:1002F000704748BF20F8022B11F0804F18BF00F85C
:10030000012B704770477047704710B500F008F830
:10031000006810BD10B5044600F002F8046010BD7E
:1003200000487047EC05002000487047EC050020AD
:100330007546FFF7F9FFAE4605006946534620F0C3
:100340000700854618B020B5FFF72CFFBDE8204018
:100350004FF000064FF000074FF000084FF0000B81
:1003600021F00701AC46ACE8C009ACE8C009ACE834
:10037000C009ACE8C0098D4670470446AFF3008061
:100380002046FFF7FAFE000001491820ABBEFEE749
:10039000260002007047000070B5044600688168BE
:1003A000C943C90717D1816821F00101816000F0BC
:1003B0007DFC05460AE000BF00F078FC401B0228E7
:1003C00004D920688068C043C00706D020688068D0
:1003D000C043C007F0D0002070BDA06A40F01000FC
:1003E000A062E06A40F00100E062012070BD000000
:1003F00010B500F046F804F0B3FB6FF00A0104F00A
:10040000CAFDBDE81040014904F0F2BBDA0F4940D3
:100410002DE9F0410446468900F033F80546801B7B
:1004200000B2B0F5006F02DDA189491EA18110F56F
:10043000006F02DAA089401CA081284604F090FBDE
:100440006FF00B0104F0A7FD084F394604F0D0FB14
:100450000646B4F90C0004F06BFB394604F0C8FB07
:10046000314604F00FFA6581BDE8F0810000B44325
:100470000160362101710021C180018141818181AA
:1004800070473EB50446002001900C204FF0FF3528
:100490008DF80800009520790123410002AA206808
:1004A00000F0F6FD009520790223410001AA2068A2
:1004B00000F0C6FCBDF8040040BAC0F30B00E080B9
:1004C0003EBDFEE7014800F0EBB9000094000020BB
:1004D000014800F0E5B9000064050020014800F083
:1004E000DFB90000A805002030B590F84050012485
:1004F000AC40C56B6C60046863604368102B036894
:1005000003D099600068C26030BD9A600068C16025
:1005100030BD704772B6FEE7F8B50024009490F83D
:1005200024202546012A12D0012280F824204A687E
:100530001F23072A0DD20668776B521E02EB820238
:1005400093409F430B6893401F43776319E0022059
:10055000F8BD06680D2A0AD2376BD21F02EB820261
:1005600093409F430B6893401F43376309E0F76A4A
:100570000D3A02EB820293409F430B6893401F4366
:10058000F7620A68072306680A2A0AD3F7680A3A54
:1005900002EB420293409F438B6893401F43F760F6
:1005A00008E0376902EB420293409F438B68934017
:1005B0001F4337610A68102A01D0112A20D1124B3B
:1005C00002689A4217D193681B0219D4936843F4C6
:1005D000000393600968102912D10C490C4A09687C
:1005E000B1FBF2F101EB8101490000E0491E0091ED
:1005F0000029FBD104E0816A41F0200181620124DD
:1006000080F824502046F8BD00240140140000204A
:1006100040420F002DE9F0414FF0000704003D4635
:100620007ED0A06A002628B9E66284F824602046BD
:1006300000F07EF82046FFF7AFFEA16A01F010013E
:10064000014304D0A06A40F01000A06268E0A16AF3
:1006500021F4885141F00201A1626268E169237BC3
:100660000A4347EA43010A43A1684FF48077B9423D
:1006700008D0012906D0002194F814C0BCF1010F64
:1006800002D00AE03946F7E7F3B1A36A43F020034A
:10069000A362E36A43F00103E3622368D3F804C072
:1006A0002CF4694C4CEA010CC3F804C02368996827
:1006B000DFF870C001EA0C0111439960A168B942EA
:1006C0000BD0012909D00CE0DFF85CC0A3690CEB6A
:1006D00043330B4343F40061DFE7218A0D05A5F5A1
:1006E00080152168CB6A23F470032B43CB62216809
:1006F00089680E4B1940914208D1E662A16A21F047
:10070000020141F00101A162BDE8F081A06A20F080
:10071000020040F01000A062E06A40F00100E062D8
:100720000120F1E7FDF7E1FF00E0FFFFFE0E1FFFF4
:1007300070B586B00026054600960196029603968F
:1007400000681A4988422FD11949886940F400701D
:100750008861886900F400700490886940F00400A2
:1007600088618869694600F0040004903320009095
:10077000032001900F4800F0A3F9104C0E48C4E983
:1007800000068020C4E902604000206180006061B2
:100790002020A0610002E061204600F02BF908B1A2
:1007A000FFF7B8FE2C62656206B070BD0024014000
:1007B00000100240000801400800024094000020A0
:1007C00010B590F821100022022905D00421816380
:1007D00080F82020012010BD01680B6823F00E0373
:1007E0000B6001680B6823F001030B6090F8403048
:1007F000C46B012101FA03F3636080F8211080F8D3
:100800002020104610BD000010B590F821100024E3
:10081000022903D00421816301243DE001680A68B4
:1008200022F00E020A6001680A6822F001020A60E2
:100830001A4A0168914201D1012121E0174A14327C
:10084000914201D110211BE0144A2832914201D17A
:10085000891515E0114A3C32914201D189140FE00B
:100860000E4A5032914202D14FF4803108E00B4AD7
:100870006432914202D14FF4801101E04FF0807157
:10088000064A083A5160012180F82110002180F8C1
:100890002010416B01B18847204610BD080002407E
:1008A0002DE9F05FC16B0C6801680B68D0F840C09F
:1008B000042202FA0CF2494DDFF824A1494E4A4FB6
:1008C000DFF828B1DFF828E122422CD05A072AD5D8
:1008D0000A68920603D40A6822F004020A600168DA
:1008E000A94201D1042219E0514501D1402215E06D
:1008F000B14202D14FF4806210E0B94202D14FF40C
:1009000080420BE0594502D14FF4802206E0714548
:1009100002D14FF4800201E04FF080622F49083984
:100920004A60C16A3BE04FF0020808FA0CF818EA86
:10093000040F4FF000094FF0010235D05FEA8378D1
:1009400032D50B689B0605D40B6823F00A030B60B5
:1009500080F821200168A94201D1022219E0514505
:1009600001D1202215E0B14202D14FF4007210E013
:10097000B94202D14FF400520BE0594502D14FF475
:10098000003206E0714502D14FF4001201E04FF051
:100990000072124908394A6080F82090816A002963
:1009A0001AD0BDE8F05F0847082505FA0CF5254286
:1009B00012D01B0710D50B6823F00E030B6090F8C4
:1009C0004010C36B02FA01F15960826380F8212064
:1009D00080F82090016BE2E7BDE8F09F080002403C
:1009E0001C00024030000240440002405800024017
:1009F0006C00024030B528B308C8134914221944CA
:100A0000B1FBF2F18900C163104981630221417792
:100A10001A6843F6F0718A43D0E900142143D0E903
:100A200002452C43214304692143446921438469DD
:100A3000214311431960002141630122427701776C
:100A4000084630BD012030BDF8FFFDBF0000024068
:100A500070B5044690F82000002501280CD0012034
:100A600084F8200094F821600020012E06D084F83C
:100A700020000225284670BD022070BD022684F8A1
:100A80002160A0632068066826F001060660204603
:100A9000FFF72AFDE06A00282068016802D041F0D3
:100AA0000E0106E021F0040101602068016841F0B8
:100AB0000A0101602068016841F001010160D9E785
:100AC0002DE9F84FDFF8B8910024A9F1040B234673
:100AD0000F2709F1040AABF1040EC9E00125A54076
:100AE0002A40AA427DD1674ED1F804C0ACEB06087B
:100AF000B44532D014DCBCF1030F3AD009DCBCF1B0
:100B0000000F2AD0BCF1010F1CD0BCF1020F31D173
:100B10001DE0BCF1110F17D0BCF1120F2AD119E062
:100B2000B8F5881F19D006DCB8F5803F15D0B8F5A8
:100B3000801F1FD111E0B8F5001F0ED0B8F5041FBB
:100B400018D10AE0CB6815E0CB681B1D12E0CB681A
:100B500008330FE0CB680C330CE08B682BB1012B12
:100B60004FF0080303D0456104E0042302E005616F
:100B700000E00023FF2A01D8064601E000F1040648
:100B80004FEA840501D9A5F12005D6F8008007FABF
:100B900005FC28EA0C0803FA05F548EA0508C6F83A
:100BA00000804D68ED0062D5374DAE6946F0010614
:100BB000AE61AD6924F0030605F001050095334DE3
:100BC00006EB050CDCF80850A607360F07FA06F806
:100BD00025EA0805DFF8B880404503D14FF000084A
:100BE00017E044E0DFF8AC80404502D14FF0010847
:100BF0000FE0DFF8A480404502D14FF0020808E082
:100C0000DFF89880404502D14FF0030801E04FF033
:100C1000040808FA06F848EA0508CCF808804D6888
:100C2000D9F80060ED024D4601D5164300E0964329
:100C30002E604D68DAF80060AD02554601D51643C6
:100C400000E096432E604D68DBF80060AD035D4622
:100C500001D5164300E096432E604D68DEF8006033
:100C6000ED03754601D5164300E096432E60641CE3
:100C70000D682A46E5407FF431AFBDE8F88F0000EB
:100C80000804014000001110001002400000014063
:100C900000080140000C0140001001400014014018
:100CA0000AB1016170470904FBE700000148806850
:100CB000704700000800002070B5040025D094F8AB
:100CC0003D00002520B984F83C50204600F076FA1B
:100CD000242084F83D002068016821F001010160B2
:100CE0002068016841F4004101602068016821F436
:100CF0000041016000F052FC4D4A6168914201D808
:100D00004C4900E04C49884201D2012070BD4B495A
:100D10002368B0FBF1F15E6826F03F060E435E608B
:100D20006368934206D94FF4967359434FF47A732C
:100D3000B1FBF3F12368491C1E6A26F03F063143DC
:100D400019626168914210D84900401EB0FBF1F26F
:100D5000521CC2F30B02042A01D2042022E0B0FB91
:100D6000F1F0401CC0F30B001CE0A268F2B301EBF1
:100D7000C10303EB0116431EB3FBF6F35B1C43F404
:100D800080431B0549D092B301EBC10202EB011174
:100D9000401EB0FBF1F0401CC0F30B0040F480405B
:100DA00040F400402168CA694CF6FF739A4310432F
:100DB000C861D4E9071001432068026822F0C0022C
:100DC00011430160D4E9030101432068826848F2BD
:100DD000FF339A4311438160D4E905010843216838
:100DE000CA6822F0FF021043C86001E00EE016E07E
:100DF0002068016841F0010101602564202084F829
:100E00003D00256384F83E50002070BD01EB410693
:100E1000431EB3FBF6F35B1CB3E70120C2E701EB13
:100E20004101401EB0FBF1F0401CC0F30B00B7E7DE
:100E3000A086010080841E0000093D0040420F0092
:100E40002DE9F84F0025DDF82890984617468A4688
:100E500004460095FFF72AFF064694F83D00202837
:100E60007AD11923012286492046009601F078FAAA
:100E70000028F5D194F83C0001286DD0012084F8B9
:100E80003C0020680168C90703D1016841F00101F5
:100E900001602068016821F400610160222084F86B
:100EA0003D00102084F83E0025646762A4F82A8083
:100EB000608D20857348E06233464A46514620469D
:100EC00001F05EF900287CD1208DDFF8BC8120275D
:100ED00068B1012814D00228206801681ED041F4AE
:100EE000806101602068416980690090BBE02068F2
:100EF000416981690091016841F400710160B2E0CB
:100F00002068016821F48061016072B6206841693F
:100F100081690091016841F400710AE041F40061C7
:100F2000016072B62068416981690091016821F40D
:100F30008061016062B696E0032865D801280CD074
:100F400002284B464FF000024146204600960BD047
:100F500001F006FAA8BB0CE090E032464946204674
:100F600001F0A4FA68BB71E001F0FAF948BB72B66F
:100F700033E02068016821F48061016072B6206866
:100F80000069616A0870606A401C6062208D401EC2
:100F90002085608D401E60853C4846F2A81100689F
:100FA000B0FBF1F0C0EBC00000EB80000090401EF1
:100FB000009007D020684069C04340070DD50098D5
:100FC000F5E727E044F8305F6773A573206940F0C8
:100FD0002000206162B625731CE02068016841F49E
:100FE0000071016020680069616A0870606A401CD5
:100FF0006062218D491E2185618D491E618562B621
:1010000021680969017025E032464946204601F011
:101010004DFA10B10120BDE8F88F20680069616ABF
:101020000870606A401C6062208D401E81B221857C
:10103000608D401E608520684269D243520712D4F9
:10104000032903D1016821F48061016020680069EF
:10105000616A0870606A401C6062208D401E2085B5
:10106000608D401E6085208D00287FF465AF84F878
:101070003D7084F83E5084F83C50CCE70220CAE72B
:10108000020010000000FFFF040001001400002017
:101090002DE9F84F1F4690468A460446DDF8289011
:1010A000FFF704FE054694F83D0020287FD1192360
:1010B000012240492046009501F052F9002876D1DE
:1010C00094F83C00012872D0012084F83C0020688C
:1010D0000168C90703D1016841F00101016020687E
:1010E000016821F400610160212084F83D00102096
:1010F00084F83E0000262664C4F824806785608D4D
:1011000020852D48E0622B464A465146204601F094
:10111000ADF890B9206841698069009036E02A46B0
:101120004946204601F0FAF950B1206C042804D158
:101130002068016841F4007101600120BDE8F88F6A
:10114000606A216800780861606A401C6062618D95
:10115000491E6185218D491E89B221852268536906
:10116000DB435B070BD451B100781061606A401C0F
:101170006062608D401E6085208D401E20852A465D
:101180004946204601F0C0F80028CED1208D002825
:10119000C5D154F83D0B016841F400710160202075
:1011A00004F81E09E67766770020C7E7FFE702200C
:1011B000C4E70000020010000000FFFF30B585B05A
:1011C000002100910191029103911E4D03681E4C74
:1011D000122103221D48AB4216D1A36943F0080334
:1011E000A361A369039203F008030493C023CDE92C
:1011F00000316946FFF764FCE06940F40010E061EB
:10120000E06900F4001019E0114DAB4217D1A36959
:1012100043F00803A361A369039203F00803049356
:101220004FF44063CDE900316946FFF749FCE069BE
:1012300040F48000E061E06900F48000049005B0B3
:1012400030BD00000054004000100240000C01407E
:10125000005800400248816802781144816070475C
:1012600008000020074810B5016841F01001016036
:10127000032000F075F80F2000F006F800F024F8C5
:10128000002010BD0020024070B50D4D04464FF403
:101290007A712878B1FBF0F00A490968B1FBF0F0E7
:1012A00000F052FB48B9102C07D200222146501EF4
:1012B00000F036F800206C6070BD012070BD0000A9
:1012C00008000020140000200C4808B5816941F096
:1012D00001018161816901F001010091C16941F061
:1012E0008051C161C06900F080500090044841689D
:1012F00021F0E06141F08061416008BD00100240D2
:1013000000000140002809DB00F01F02012191408C
:101310004009800000F1E020C0F800117047000093
:10132000F0B40E4B1B680C46C3F30223C3F1070550
:10133000042D00D90425191D072901D2002300E03E
:10134000DB1E012606FA05F1491E214099409E4008
:10135000761E16403143F0BC01F067BE0CED00E094
:10136000064900F0070208684FF6FF03184040EAFC
:101370000220034A10430860704700000CED00E0B3
:101380000000FA052DE9F84305460078354CC00702
:1013900054D0E0690026C00008D4E06940F08050D5
:1013A000E061E069012600F0805000902E4801685D
:1013B000C90512D40168804641F480710160FFF7CD
:1013C00075FC074605E000BFFFF770FCC01B6428F2
:1013D00023D8D8F80000C005F6D5206A10F4407074
:1013E00021D0A98801F4407181421CD0206A1F4994
:1013F000012220F440700A6000220A602062C007C7
:1014000011D0FFF753FC074641F2883808E000BFCF
:10141000FFF74CFCC11B414502D90320BDE8F8830E
:10142000206A8007F4D5206A696820F44070084378
:1014300020621EB1E06920F08050E06128788007CA
:1014400005D56068A96820F44040084360602878AA
:10145000C00605D56068E96820F480000843606034
:101460000020DBE7001002400070004040044242D0
:101470002DE9F0470F46050061D0434E306800F07B
:101480000700B84209D2306820F0070038433060C6
:10149000306800F00700B84251D128683B4C810702
:1014A00012D5400703D5606840F4E060606028789A
:1014B000000703D5606840F4605060606068A96808
:1014C00020F0F000084360602878C00728D06868E2
:1014D000012810D02168022810D0890700292EDAAF
:1014E000616821F0030101436160FFF7DFFB804683
:1014F00041F288390DE021688903EFE78901EDE7C2
:10150000FFF7D4FBA0EB0801494502D90320BDE851
:10151000F0876068696800F00C00B0EB810FEFD1D4
:10152000306800F00700B8420BD9306820F007009F
:1015300038433060306800F00700B84201D0012025
:10154000E5E72878400705D56068E96820F4E060A1
:10155000084360602878000706D56068296920F490
:10156000605040EAC100606000F038F86168084AE5
:10157000C1F30311515CC840064908600648006881
:10158000FFF782FE0020C2E7002002400010024068
:1015900024500008140000200C00002004480549D5
:1015A00000684968044AC1F30221515CC840704791
:1015B000140000200010024034500008044805497F
:1015C00000684968044AC1F3C221515CC8407047B1
:1015D0001400002000100240345000080E4A5168E8
:1015E0000E4801F00C03042B11D0082B0FD10C482E
:1015F000C1F38343C903C05C0AD55168084AC1F3EB
:101600004041921E515C054A5043B0FBF1F07047D7
:1016100004494843704700000010024000127A005D
:101620001450000800093D002DE9F84F040070D067
:101630002078C04DC00749D06868C0F381000128F8
:1016400007D06868C0F38100022809D16868C00328
:1016500006D52868800339D560680028E7D035E0D2
:101660006068B0F5803F0BD010B1B0F5A02F11D05D
:10167000286820F480302860286820F4802002E068
:10168000286840F480302860606890B1FFF70EFB56
:1016900006460AE0286840F480202860F0E700BF92
:1016A000FFF704FB801B642873D828688003F7D5F4
:1016B0000CE0FFF7FBFA064605E000BFFFF7F6FA7D
:1016C000801B6428F0D828688003F7D420789A4ECD
:1016D00080074FF001094FF0000839D5686810F015
:1016E0000C0F07D06868C0F38100022809D1686830
:1016F000C00306D42868800714D52069012808D1C2
:1017000010E02069B0B1C6F80090FFF7CFFA0746A5
:1017100005E00AE1FFF7CAFAC01B0228C4D828680E
:101720008007F7D52868616920F0F80040EAC10019
:1017300028600DE0C6F80080FFF7B8FA074604E01D
:10174000FFF7B4FAC01B022823D828688007F7D413
:10175000207800072CD57948A169D9B1C0F800904C
:10176000FFF7A4FA074604E0FFF7A0FAC01B02281F
:101770000FD8686A8007F7D571484FF4FA510068AE
:10178000B0FBF1F0009000BF0098411E0091FAD22A
:101790000EE080E0C0F80080FFF788FA074604E01A
:1017A000FFF784FAC01B022875D8686A8007F7D44F
:1017B0002078400760D5E8690027C00008D4E869B0
:1017C00040F08050E861E869012700F08050009007
:1017D0005C480168C90513D40168834641F48071EF
:1017E0000160FFF763FA824606E000BFFFF75EFA8A
:1017F000A0EB0A0064284ED8DBF80000C005F5D540
:10180000E06801280AD008B1052813D0286A20F022
:1018100001002862286A20F0040002E0286A40F0F3
:1018200001002862E06841F2883B98B1FFF73EFA78
:1018300082460BE0286A40F004002862EEE700BF11
:10184000FFF734FAA0EB0A0159455AD8286A8007F5
:10185000F6D50CE0FFF72AFA824605E0FFF726FAF4
:10186000A0EB0A0159454CD8286A8007F6D41FB16D
:10187000E86920F08050E861E06988B36968C1F3E5
:101880008101022944D00228C6F8608004D0FFF705
:101890000DFA044638E034E0FFF708FA074604E0A2
:1018A000FFF704FAC01B02282BD828688001F7D460
:1018B000206AB0F5803F05D16868A16820F4003047
:1018C00008436860D4E908010843696821F4741189
:1018D00008436860C6F86090FFF7E8F9044606E040
:1018E00025E000BFFFF7E2F9001B022809D82868AD
:1018F0008001F7D51BE000BFFFF7D8F9001B0228D5
:1019000002D90320BDE8F88F28688001F4D40EE0E6
:101910000128F7D06868226A00F48031914204D12E
:10192000616A00F47010884201D00120EAE70020CB
:10193000E8E70000001002400000424280044242FA
:10194000140000200070004010B5401EB0F1807FF0
:1019500001D3012010BD4FF0E02460610F2160171A
:1019600001F063FB0020A06107202061002010BD72
:1019700010B590F83C20012A22D0012280F83C20AA
:10198000CA688C6822F4407222434C6822F4806258
:1019900022430C6822F4006222430C6922F4805234
:1019A00022434C6922F400522243C969002322F4E5
:1019B00080420A4301684A6480F83C30002010BD30
:1019C000022010BD70B590F83C20012A26D00124D9
:1019D00080F83C40022280F83D2003685A689D68E8
:1019E00022F070060A6832435A600D4B02689A4230
:1019F00008D0B2F1804F05D00A4B9A4202D00A4B70
:101A00009A4204D1496825F080031943916080F817
:101A10003D40002180F83C10084670BD022070BD9A
:101A2000002C0140000400400008004010B586B0C2
:101A3000002100910191029103911D4B02681D4903
:101A400002241D489A420ED18A6942F004028A613A
:101A50008969039401F0040104914FF4E061CDE938
:101A6000001469461FE0154B9A421ED18A6942F064
:101A700004028A618A6902F0040204928A6942F0CF
:101A800008028A618969039401F008010491C02168
:101A9000CDE900146946FFF713F80120CDE90004F1
:101AA000694607480394FFF70BF806B010BD000025
:101AB000002C0140001002400008014000040040DA
:101AC000000C014070B5044690F83C0000260D461D
:101AD00001280FD0012084F83C006AB1042A1DD0EF
:101AE000082A2FD00C2A3FD00126002084F83C0081
:101AF000304670BD022070BD206800F08FFF206866
:101B0000816941F0080181612068816921F0040147
:101B10008161206881692A69114311E0206800F021
:101B2000A5FF2068816941F40061816120688169B5
:101B300021F480618161206881692A6941EA02217A
:101B40008161D2E7206800F0BDFF2068C16941F0E3
:101B50000801C1612068C16921F00401C1612068E8
:101B6000C1692A69114311E0206800F0D7FF20689D
:101B7000C16941F40061C1612068C16921F48061DB
:101B8000C1612068C1692A6941EA0221C161ACE7EB
:101B900010B5040003D094F83D0010B107E0012017
:101BA00010BD002084F83C00204600F01FF8022001
:101BB00084F83D00211D206800F0E6FE012084F835
:101BC000460084F83E0084F83F0084F8400084F822
:101BD000410084F8420084F8430084F8440084F80B
:101BE000450084F83D00002010BD000008B50C4AF7
:101BF00001680C48914207D1816941F4006181611B
:101C0000806900F4006009E0074A914207D1C16988
:101C100041F00201C161C06900F00200009008BDFE
:101C2000002C0140001002400004004010B50446A2
:101C3000022249B104290ED0082913D094F841009A
:101C4000012816D0012010BD94F83E000128F9D1DA
:101C500084F83E200FE094F83F000128F2D184F888
:101C60003F2008E094F840000128EBD184F84020A0
:101C700001E084F841200122206800F0C1FE0F49F4
:101C80002068884203D1426C42F4004242642068DA
:101C9000884208D0B0F1804F05D00949884202D06F
:101CA0000849884204D1816801F00701062903D060
:101CB000016841F001010160002010BD002C0140CD
:101CC0000004004000080040704710B5044600685A
:101CD000406994F84110C0F3C010212911D180B19E
:101CE0002068143050E8001F21F0800140E8001205
:101CF000002AF5D1A06B08B1FEF762FD204600F086
:101D0000D5FF2068406994F84210C0F38010222962
:101D100011D180B12068143050E8001F21F040013B
:101D200040E80012002AF5D1E06B08B1FEF748FD4B
:101D3000204600F094FF002010BD7047F8B5016800
:101D400004460868CA684B6910F00F0F4FF0000591
:101D50005AD003F0010602F49077374365D0C107EB
:101D600005D0D10503D5616C41F0010161644107E3
:101D700005D5D90703D0616C41F002016164810788
:101D800005D5D90703D0616C41F0040161640107F6
:101D900007D502F02001314303D0616C41F0080106
:101DA0006164616C00293BD0800604D5900602D5A1
:101DB000204600F0C7FF20684069616CC0F38010C6
:101DC00001F00801014320462BD000F048FF2068B5
:101DD0004069400621D52068143050E8001F21F0EA
:101DE000400140E80012002AF5D1E06BA8B16D492E
:101DF0004163E06BFEF708FD002811D0E06B416BFA
:101E000001B0BDE8F040084783060ED593060CD517
:101E10002046BDE8F84000F095BF2046FFF78DFF53
:101E2000F8BDFFF78AFF6564F8BD266B2023012EFD
:101E30007CD1C6067AD5D60678D508684868009061
:101E400048694FF00206400640D5E16B08684068DB
:101E50000004000CE8D0A28D8242E5D9E0858869B3
:101E600020282DD020680C3050E8001F21F480710C
:101E700040E80012002AF5D12168143151E8000F22
:101E800020F0010041E80002002AF5D1206814305A
:101E900050E8001F21F0400140E80012002AF5D16F
:101EA00084F84230256320680C3050E8001F21F090
:101EB000100140E80012002AF5D1E06BFEF780FC2B
:101EC0006663A08DE18D401A81B22AE0A08DE18D7C
:101ED000401A81B2E08D0028A6D00029A4D0226843
:101EE0000C3252E8000F20F4907042E80007002FF7
:101EF000F5D12068143050E8002F22F0010240E8AC
:101F00000027002FF5D184F84230256320680C307B
:101F100050E8002F22F0100240E80023002BF5D1FA
:101F200066632046FFF7D0FEF8BDFFE705062BD518
:101F3000150629D594F841002128F5D1A068B0F5FF
:101F4000805F01D12069B0B1206A411C2162216803
:101F500000784860E08C401E0004000CE084E3D16F
:101F60002068C16821F08001C1602068C16841F02B
:101F70004001C160D8E7206A0088C0F308004860CB
:101F8000206A801C2062E5E74006CDD55006CBD5FF
:101F9000CA68204622F04002CA6084F8413000F04E
:101FA000C7F8C1E7612B000870B5040004D094F8AD
:101FB0004100002510B106E0012070BD84F84050BA
:101FC000204600F023F8242084F841002068C168EE
:101FD00021F40051C160204600F01EFF2068016915
:101FE00021F4904101612068416921F02A01416199
:101FF0002068C16841F40051C1606564202084F804
:10200000410084F842006563002070BD2DE9F04175
:1020100086B000240646009401940294039400685C
:102020002E49884256D12E48C16941F40031C16120
:10203000C16901F400310491816941F004018161B9
:102040008069284D00F004000490042000900220D4
:1020500001900320039069462846FEF731FD0820D1
:10206000CDE90004694628460294FEF729FD1F4D7C
:102070001D484FF08008C5E90004C5E902482C61FD
:1020800087146C61C5E906472846FEF7B3FC08B122
:10209000FEF740FAF5636E62144D13484435143070
:1020A00001C51020A5E81101104845F81049443039
:1020B0006C61C5E90647FEF79DFC08B1FEF72AFAF8
:1020C000B5630022114626206E62FFF729F926200B
:1020D000FFF718F906B0BDE8F081000000440040A9
:1020E00000100240000801406C000240640500201E
:1020F00090F84230202B01D00220704721B11AB154
:102100000023036300F0F4BE01207047054A016814
:10211000914206D1044A002182F80312114600F0D0
:10212000D7BE7047004400401002002070470000F6
:1021300000680549884206D10448002180F8071349
:10214000012180F80613704700440040100200206F
:10215000FEE701684A69D24352050FD46FF48062EA
:102160004A61002140F8301F2022427381730269C6
:1021700042F00402026101730120704700207047A1
:102180002DE9F84F0446C06A1E4693460D46216865
:102190000A6842F480620A60082807D0012805D046
:1021A00010F5803F02D0206B112804D1206801680F
:1021B00041F4807101604FF001195B4600224946ED
:1021C0002046009600F0CCF84FF4007840B120682B
:1021D0000068C00501D5C4F840800320BDE8F88F31
:1021E0002069DFF884A0B0F5804F0FD00620216869
:1021F00000EAD51747F0F000086133465A460AF165
:102200000601204600F0F4F858BB03E0E8B240F0C5
:1022100001001CE02168E8B2086133465A46514685
:10222000204600F0E5F8E0B9206841698169009135
:10223000016841F4807101605B46002249462046F6
:10224000009600F08DF80028C1D147F0F100216818
:10225000086133465A465146204600F0C9F8002826
:10226000BCD00120BAE7000002000100F8B5044626
:10227000C06A1E460D461746082807D0012805D01B
:1022800010F5803F02D0206B122804D1206801682D
:1022900041F480710160134600224FF00111204685
:1022A000009600F05DF840B120680068C00502D5D6
:1022B0004FF4007020640320F8BD2069B0F5804F12
:1022C0000ED00620216800EAD51040F0F000086129
:1022D00033463A460B49204600F08AF878B902E0C6
:1022E00005F0FE0000E0E8B22168086105493346C8
:1022F0003A46891F204600F07BF80028DCD00120F8
:10230000F8BD00000800010070B516460D460446F1
:102310001EE02046FFF71DFF08B1012070BD681CBC
:1023200016D0FEF7C3FC801BA84200D885B92068F0
:102330004069C04340070BD5002044F8300F2021EE
:102340006173A073216941F0200121612073E4E7EA
:1023500020684069C0434007DBD4002070BD000006
:102360002DE9F047984617460D460446C1F3074647
:10237000DDF820902AE000BFB8F1FF3F26D0FEF73D
:1023800095FCA0EB0901414502D8B8F1000F1DD121
:102390002068012E16D0806925EA00000004000C98
:1023A00012D00020B84211D1002044F8300F202173
:1023B0006173A073216941F0200121612073012024
:1023C000BDE8F0874069E7E70120EBE72068012ED0
:1023D0000AD0806925EA00000004000C06D0002025
:1023E000B842C9D00020EBE74069F3E70120F7E7E6
:1023F0002DE9F047984616460D4604464FF0000971
:102400004FF0200AC1F3074723E020684069C0432A
:10241000400515D42068016841F40071016021680D
:102420006FF480604861C4F8309084F83DA084F86F
:102430003E90216C41F00401216484F83C9021E03D
:10244000701C06D0FEF732FCA0EB0800B04203D8A7
:1024500016B1012F1FD021E02068012F15D080690F
:1024600025EA00000004000C18D000BF44F8309F9B
:1024700084F80DA084F80E90216941F020012161BB
:1024800084F80C900120BDE8F087406925EA00003F
:102490000004000CEAD12068406901E020688069EE
:1024A00025EA00000004000CAFD1ECE72DE9F04173
:1024B000002590460E460446202728E04069C04388
:1024C000C0060CD454F8301B6FF01000486144F87B
:1024D00010596777A577206A2062257714E0FEF708
:1024E000E5FBA0EB0800B04200D886B9206840693F
:1024F000C04340060BD544F8305F6773A57320696D
:1025000040F02000206125730120BDE8F0812068A3
:102510004169C9434906D1D40020F6E770B5164693
:102520000D4604461EE02046FFF713FE08B10120C9
:1025300070BD681C16D0FEF7B9FB801BA84200D8FE
:1025400085B920684069C04300060BD5002044F8D7
:10255000300F20216173A073216941F020012161B6
:102560002073E4E720684069C0430006DBD4002004
:1025700070BD0000FEB500242048009401941E495F
:102580000294016089158160047304750425056156
:102590004FF460214460C161FEF73CF808B1FDF7DB
:1025A000B9FF0126CDE90046694614480294FDF7BB
:1025B000B3FF08B1FDF7AEFF0220CDE90060694628
:1025C0000E48FDF7A9FF08B1FDF7A4FF0320CDE9F0
:1025D000005069460948FDF79FFF08B1FDF79AFFD3
:1025E0000520CDE9000569460448FDF795FF002860
:1025F00001D0FDF78FFFFEBD0024014064000020E4
:10260000114808B5416941F001014161406900226A
:1026100000F00100009011460B20FEF781FE0B2018
:10262000FEF770FE002211461020FEF779FE102002
:10263000FEF768FE002211461120FEF771FEBDE88C
:1026400008401120FEF75EBE001002402DE9F04365
:1026500085B0002425480094019402940394816974
:1026600041F020018161816901F0200104918169BB
:1026700041F004018161816901F0040104918169E3
:1026800041F0080181618069DFF8648000F0080092
:102690004FF440450490012229464046FEF700FBD6
:1026A000DFF850904FF40067002239464846FEF7A5
:1026B000F7FAA810CDE90004694640460294FEF7F7
:1026C000FFF90095022601250396CDE901546946DC
:1026D0004046FEF7F5F900970396CDE901546946A7
:1026E0004846FEF7EDF905B0BDE8F0830010024062
:1026F000000C0140000801400D4810B50B49016075
:102700000C49416000214FF480428160C0E903120E
:1027100041618161C1610162FEF7CEFA002803D0F8
:10272000BDE81040FDF7F6BE10BD000000540040AB
:10273000D8000020801A06000D4810B50B49016032
:102740000C49416000214FF480428160C0E90312CE
:1027500041618161C1610162FEF7AEFA002803D0D8
:10276000BDE81040FDF7D6BE10BD00000058004087
:102770002C010020801A060010B592B000240F949E
:102780001C2168461094FDF796FD202107A8FDF74F
:1027900092FD2848264901600821C0E90114FF2163
:1027A000C0E903148021C0E90541FFF7F1F908B140
:1027B000FDF7B0FE0F940FA91E481094FFF702F921
:1027C00008B1FDF7A7FE6020CDE900040294039450
:1027D000049405940022694616480694FFF772F99E
:1027E00008B1FDF797FE042269461248FFF76AF91F
:1027F00008B1FDF78FFE082269460E48FFF762F91F
:1028000008B1FDF787FE0794089409944FF400502F
:102810000A94CDE90B4007A906480E94FFF7A8F8E3
:1028200008B1FDF777FE0348FFF700F912B010BDBD
:10283000002C01408001002010B58AB000240794CC
:102840001C2168460894FDF736FD1E481C49C0E966
:10285000001440F2CF21C0E902418021046181616E
:10286000FFF796F908B1FDF755FE079407A915483B
:102870000894FFF7A7F808B1FDF74CFE6020CDE9FA
:1028800000040294002269460E480494FFF71AF9E6
:1028900008B1FDF73FFE042269460A48FFF712F926
:1028A00008B1FDF737FE082269460648FFF70AF926
:1028B00008B1FDF72FFE0348FFF7B8F80AB010BDC6
:1028C00000040040C80100200C4810B50A4901600E
:1028D0004FF4E1314160002181600C22C160C0E908
:1028E00004128161C161FFF75FFB002803D0BDE8DE
:1028F0001040FDF70FBE10BD004400401C05002035
:10290000FEE7FEE770477047FEF7A4BC30B593B012
:1029100028216846FDF7CFFC14210AA8FDF7CBFC5F
:10292000002501200F9510951195010412958DE851
:10293000230004904FF4E010CDE90810022407941E
:102940006846FEF771FE08B172B6FEE70AA90F20CD
:1029500081E831004FF48060CDE90D0502210AA81D
:10296000FEF786FD08B172B6FEE74FF40040119005
:102970000F940FA8FEF706FD002801D072B6FEE7FF
:1029800013B030BD70470000F0B50268194B1A4C07
:102990001A4D4FF08047984205D0B84203D0A0426C
:1029A00001D0A84203D122F070064A68324398420F
:1029B00005D0B84203D0A04201D0A84203D122F4EE
:1029C0004074CA6822434C6922F0800222430260AC
:1029D0008A68C2620A688262984201D10969016309
:1029E000012141610169C90703D0016921F0010199
:1029F0000161F0BD002C01400004004000080040CF
:102A000010B501F01F030121046A99408C43046250
:102A1000016A9A401143016210BD000030B5036A9B
:102A2000026A22F0010202624268846924F073059E
:102A30000C682C4323F002058B682B430A4DA842F7
:102A40000BD123F00805CB6822F440722B434D696B
:102A500023F0040315438A692A434260846149686C
:102A60004163036230BD0000002C014030B5026AB2
:102A7000036A23F010030362436884690D6824F439
:102A8000E64444EA05248D6822F0200242EA051259
:102A90000B4DA8420ED1CD6822F0800242EA051209
:102AA0004D6923F4406343EA85038D6922F04002B7
:102AB00043EA85034360846149688163026230BDF3
:102AC000002C014030B5036A026A22F4807202626F
:102AD0004268C46923F4007324F073050C682C4326
:102AE0008D6843EA05230C4DA8420ED1CD6823F42E
:102AF000006343EA05234D6922F4405242EA05127D
:102B00008D6923F4806342EA05124260C46149681A
:102B1000C163036230BD0000002C014030B5046A7F
:102B2000026A22F4805202624268C3690D6823F48B
:102B3000E64343EA05238D6824F4005444EA05344F
:102B4000064DA84204D14D6922F4804242EA851222
:102B50004260C36149680164046230BD002C0140D9
:102B600010B5406A0021C185C184FFF7E6F810BDA9
:102B700070B5446A2068406994F84110C0F3C010F1
:102B80000025212904D118B1E584204600F08EF8F3
:102B90002068406994F84210C0F38010222904D1C3
:102BA00018B1E585204600F05AF8606C40F010003E
:102BB00060642046FFF7C1F870BD10B50146406A59
:102BC000096809684FF0000289062ED4C2850168A1
:102BD0000C3151E8003F23F4807341E80034002CAD
:102BE000F5D10168143151E8003F23F0010341E8B9
:102BF0000034002CF5D10168143151E8003F23F076
:102C0000400341E80034002CF5D1202180F8421027
:102C1000016B012909D101680C3151E8003F23F013
:102C2000100341E80034002CF5D14263016B012907
:102C300002D0FFF76BFA10BD818DFFF745F810BD8C
:102C400010B5406A01214163016B012902D0FFF7F1
:102C50006DFA10BD818D4908FFF736F810BD016887
:102C60000C3151E8002F22F4907241E80023002B30
:102C7000F5D10168143151E8002F22F0010241E83A
:102C80000023002BF5D1016B012909D101680C311A
:102C900051E8002F22F0100241E80023002BF5D16B
:102CA000202180F8421000210163704701680C3137
:102CB00051E8002F22F0C00241E80023002BF5D19B
:102CC000202180F84110704700680349884201D1F3
:102CD0000248704700207047004400401002002066
:102CE00070B50C4605464FF443712046FDF7E3FAF4
:102CF0004FF4807221462846FFF7FAF92868C16828
:102D000041F01001C160012084F8030270BD70B56C
:102D1000054691F8020216460C46002811D0B4F878
:102D200000229A4200D91A4604F580713046FDF718
:102D30004BFA002084F802022146284600F0C8F829
:102D4000012070BD08B590F84210222901D0022060
:102D500008BD82684FF480539A4201D1016921B1C4
:102D6000816A9A421BD04AB10AE00268816A5268BD
:102D7000C2F308020A80816A891C08E0026972B104
:102D80000268526802F07F020A70816A491C8162FF
:102D9000C18D491E0904090CC18503D01BE00268DE
:102DA0005268F1E70168CA6822F02002CA6001682F
:102DB000CA6822F48072CA6001684A6922F001027E
:102DC0004A61202180F8421000214163026B012AF0
:102DD00003D0FFF79BF9002008BD016301680C31A7
:102DE00051E8002F22F0100241E80023002BF5D11A
:102DF00001680A68D20602D50A6849680091818D87
:102E0000FEF762FFE7E7C0F8081370470148FFF7D5
:102E10005BBF00001C05002070B504460068016916
:102E2000E26821F44051114301612169A06808431F
:102E3000616908432168CA6841F20C639A430243FE
:102E4000CA6020684169A26921F44071114341615F
:102E50001E492068884202D1FEF7B0FB01E0FEF770
:102E60009DFB00EBC00101EB001260686421800053
:102E7000B2FBF0F3B3FBF1F36FF018067343B2FB50
:102E8000F0F5B2FBF0F605EB8305322303EB0515F5
:102E9000B5FBF1F5B6FBF1F605F0F00505EB06150F
:102EA000B2FBF0F6B2FBF0F0B0FBF1F06FF01802FD
:102EB000504306EB800003EB0010B0FBF1F02168FB
:102EC00000F00F002844886070BD00000038014009
:102ED00010B50C4691F80312002907D14FF4807207
:102EE0002146FFF705F9012084F8030210BD000018
:102EF00038B5816204468285002013466064222230
:102F000084F84220E56B1B4AAA62E56B1A4AEA6222
:102F1000E56B1A4A2A63E26B50630A462168E06B4C
:102F2000091DFDF795FD2068016840680090206943
:102F300048B120680C3050E8001F41F4807140E82F
:102F40000012002AF5D12068143050E8001F41F02B
:102F5000010140E80012002AF5D12068143050E841
:102F6000001F41F0400140E80012002AF5D1002086
:102F700038BD0000BB2B0008412C0008712B000855
:102F8000F8B51E4D28680168C943C90631D40168E7
:102F90000026406800902846FFF796FE040028D0DF
:102FA0002846FEF792FEE86B006840684FF0010586
:102FB00080B2C0F580700204120CA4F800220ED07A
:102FC00004F5807021460746FDF743F984F8025264
:102FD000D4F808231AB1B4F800123846904784F8A0
:102FE00003624FF4807221460448FFF781F884F8A9
:102FF0000352BDE8F8400148FEF7A0BE1C050020C2
:10300000FEE7490050EAC12018BF04204A0D18BF4E
:1030100040F0010040F2FF72B2EB515F08BF40F098
:103020000200012808BF052070470907090E002883
:1030300004DB00F1E02080F80014704700F00F007E
:1030400000F1E02080F8141D704700002DE9F74FD3
:10305000144694B00021C4E902111599079121F09A
:103060000045C9498D4206DC1599C4E9000117B035
:103070000020BDE8F08FC549DFF814A3A9423CDD6C
:103080000799C44E0029C44FC44A1599534619DD07
:1030900001F0E2FA554506D0C14AC24B01F0DCFA14
:1030A000C4E900010AE04FF0D352BE4B01F0D4FA5C
:1030B00032463B4601F0D0FAC4E9000117B00120C6
:1030C000BDE8F08F00F0CEFD554506D0B44AB54BB3
:1030D00000F0C8FDC4E900010AE04FF0D352B14B43
:1030E00000F0C0FD32463B4600F0BCFDC4E90001E3
:1030F00017B04FF0FF30BDE8F08FAB49A9421599EA
:1031000078DB21F0004183468846A84AA84B01F0AD
:103110000BF80022A74B00F0A5FD00F0ABFF0990D3
:1031200000F0D7FF06460F469C4A534600F0FCFFCE
:1031300043465A4601F09EF980468A46984A994B82
:103140003046394600F0F0FF2A0D01250B92424629
:10315000534601F08FF9032DC4E9000139D00B98D3
:10316000C1F30A51401A05EB45111139814230DA99
:103170009148C346784400EB0510CDF80CA00C90A4
:10318000D0E900233046394600F0CEFF02460B4618
:10319000049106905846039901F05EFA80468A46EB
:1031A00002460B465846039901F056FA049B069ACC
:1031B00001F052FA83460C9803913946D0E9022374
:1031C000304600F0B1FF5A46039B01F045FA6D1CF2
:1031D000BDE707980028A2BF099817B0BDE8F08F97
:1031E000616881F000416160099817B04042BDE814
:1031F000F08FFFE784461598C1F31301C0F30A501E
:10320000A0F2F5304FEA601800F01F06C6F120006A
:10321000139000200690079041F4801E05206D4613
:1032200076B1664A08EB00017A4452F8213002EB8D
:103230008101B3404A68139922FA01F1194305E06C
:103240005F4908EB0002794451F82210A1FB0E27D8
:10325000A1FB0C131A449A4234BF0123002303EB51
:10326000070A05EB8003D3E901B70F448F4234BF4F
:103270000121002193448B4411B1934502D903E00D
:10328000934501D2012100E00021C3E901B7514477
:1032900045F82010011EA0F10100C1DC0298059F35
:1032A00000F10050800F12900298DDE90356800073
:1032B00000F00FFF834628460D9100F021FF6FF0CC
:1032C0001D0201F03AFECDE90E01304600F018FF74
:1032D0006FF03D0201F031FE80468A46384600F02C
:1032E0000FFF6FF05D0201F028FE0746424653468D
:1032F000119100F0B7FCDDE90E2300F0B3FC5A4653
:103300000D9B00F0AFFC00250E465A4628460D9B4B
:1033100001F0A2F9DDE90E2301F09EF94246534681
:1033200001F09AF93A46119B01F0A4F8DFF898A051
:10333000244A534600F0F8FE07468846234A244BA9
:103340003146284600F0F0FE3A46434600F08AFC3B
:10335000074688464FF0A84253463146284600F0BB
:10336000E3FE3A46434600F07DFC159A12F0004F0A
:1033700004D0129A81F0004152421292C4E9000135
:10338000129817B0BDE8F08FFB21E93F7CD90240CD
:10339000FB21F93F7370032E8A19A33B00004054B0
:1033A0003163621A61B4D03DFB21394183C8C96DD4
:1033B000305FE43F0000E03FF81E0000741E000094
:1033C000561E0000182D4454FB21F93D3326A6114A
:1033D000460B113C2DE9FF4D21F0004807460C46F5
:1033E000B8F1795F08DA00F045FE002801BF00203F
:1033F000324904B0BDE8F08D3A46234610461946DE
:1034000000F092FE054602462D480E460B46062168
:10341000784400F05DF82A46334600F085FEDDE989
:10342000022382468B463846214600F07DFE044644
:103430000F4652465B462846314600F075FE22464E
:103440003B4601F009F907468A464FF0FF3228460D
:10345000314601F072FD1B4A90450ADA3A4653465E
:1034600001F0FAF804B00022BDE8F04D134B01F072
:1034700001B8154A4245A8BFA8F500154FF0000451
:10348000B8BF124D22462B4601F0E6F806468846A4
:1034900022462B460020094901F0DEF804460D467D
:1034A0003A4653463046414601F0D6F804B022462B
:1034B0002B46BDE8F04D00F0DDBF00000000F03FFE
:1034C0002C1C00003333D33F0000E93F0000D23F03
:1034D0002DE9F0414F1E00EBC7010446D1E9000180
:1034E00015461E4637F006020DD02A46334600F038
:1034F0001BFE7F1E04EBC703D3E9002300F0B2FBE1
:1035000037F00602F1D1022F25D0042F13D0062F59
:1035100018BFBDE8F0812A46334600F005FED4E925
:103520000A2300F09FFB2A46334600F0FDFDD4E954
:10353000082300F097FB2A46334600F0F5FDD4E956
:10354000062300F08FFB2A46334600F0EDFDD4E958
:10355000042300F087FB2A46334600F0E5FDD4E95A
:10356000022300F07FFB2A46334600F0DDFDD4E95C
:103570000023BDE8F04100F075BB00002DE9FF4DD0
:10358000054621F0004084B00C46B0F1795F0BDABB
:103590002846FFF736FD042808BF00F06FF82846DC
:1035A00008B02146BDE8F08D2A460B46104600F0D3
:1035B000BBFD06460F462A46234600F0B5FD804671
:1035C00026488A4632463B4605217844FFF780FF6D
:1035D00083461098029160B3214A224B40465146DF
:1035E00000F0A2FDCDE900015A4640465146029B3B
:1035F00000F09AFD82468846DDE906014FF0FF3271
:1036000001F09BFC5246434601F026F832463B4609
:1036100000F08AFDDDE9062301F01EF8DDE9002354
:1036200001F01AF808B02A462346BDE8F04D00F034
:1036300021BF0B465A463046394600F075FD084A10
:10364000084B00F00FFB4246534600F06DFD08B0FA
:103650002A462346BDE8F04D00F004BB6A1B00007B
:10366000495555555555C5BF012201F066BC00228C
:1036700013461046114600F0A5BB0000024A002088
:10368000110701F05ABC000001FDFFFF10B507490A
:103690000446C86A896A484301F04AFA214601F0A3
:1036A000A7FABDE8104000F003B8000018000020A1
:1036B00010B501F0BBF84FF08042074B00F05EF808
:1036C00000F09EFAB0F5000F04DABDE8104003499F
:1036D00001F0D8B810BD0000FB211940DA0FC94035
:1036E00000B5244B21F0004287B09A42DCBF002293
:1036F000134629DD204B9A4208D140B94FF0010012
:10370000FCF708FEFFF7B3FF07B000BD03DBFFF7D0
:10371000ABFF07B000BD02AAFFF798FC10F0030151
:1037200004BF0DF1080C9CE80F000DD00120012909
:103730000ED0022914D00DF1080C00909CE80F0067
:10374000FFF71CFF07B000BDFFF744FE07B000BD48
:103750000DF1080C00909CE80F00FFF70FFF05E04B
:103760000DF1080C9CE80F00FFF734FE07B081F064
:10377000004100BDFB21E93F0000F07F70B5144619
:103780001D460E46002814BF01210021314321F0BF
:103790000041C1F17F6101F1E041C90F16D1002C58
:1037A00014BF01210021294321F00041C1F17F61B3
:1037B00001F1E041C90F09D11449B1EB460F08BF2F
:1037C00000281CD0690008BF002C18D0314600F03A
:1037D000A3FD024640F2FF7030EA11500DD0F01701
:1037E000B0EBE17F09D0084665F31E0084460B4626
:1037F0002046614600F03EFE0246104670BD0120A4
:10380000FCF788FDBDE87040FFF731BF0000E0FF26
:10381000FDF728FDFFF77AF8FEF718FFFEF7F0FE38
:10382000FEF7A8FEFEF7A8FFFEF766FFFEF784FF8F
:10383000FFF702F8FFF748F82848FFF745FA0500B8
:1038400049D001462548FFF74BFA25492846FFF79E
:10385000DAFA24492448FCF70BFE0122D10223485E
:10386000FDF71EFA00212248FEF7E0F90421204866
:10387000FEF7DCF908211E48FEF7D8F91D4EDFF8E7
:103880007880DFF878901E4C1D4A0423121D2946CB
:103890001248FFF73CFA1448FCF7AAFD0746124805
:1038A000FCF7B6FD20603846FFF7F0FE0746D4E986
:1038B000001000F0E7FF314601F09AF9014640465A
:1038C000814203D80846494500DD48463A46002172
:1038D00000F08EF8D8E772B6FEE700001C05002065
:1038E0000D2E0008D80000205400002000080140E0
:1038F000800100202731083E0000C0C00000C04009
:10390000000000202DE9F05FDFF8D480354D14462B
:103910000E460746404501D3002704E0296801F020
:1039200033FA00D22F68B9464746BE4201D300267B
:1039300005E03046296801F027FA00D22E68BC4223
:1039400001D3002405E02046296801F01DFA00D2C9
:103950002C686968A2468B46484601F007F84FF08C
:103960007E54B84201D3002002E0A04200DD204690
:103970008046E8615946304600F0F8FFB84201D36E
:10398000002002E0A04200DD20460646286259469B
:10399000504600F0EBFFB84201D3002002E0A04205
:1039A00000DD20466862104F05463946404601F06A
:1039B0001FF901F09DF80D4C2168486339463046E7
:1039C00001F016F901F094F8216888633946284619
:1039D00001F00EF901F08CF82168C863BDE8F09F92
:1039E000000080801800002000007F43800100203C
:1039F0002DE9F05F06461046FFF75AFE00F016FF6D
:103A00008846054600F086F807460C4686F00040DA
:103A100000F00CFF3A46234600F086FB00F0F0F879
:103A20003A4C4146A0602846FFF75AFE07460D462D
:103A3000304600F0FBFE3A462B4600F075FB00F0E6
:103A4000DFF805464FF0FF3BE0605946606801F043
:103A5000A2FAA16807460E4600F014FF206138461E
:103A600000F0E4FE81468A46304600F0DFFE06465E
:103A70008846284600F0DAFE05460F460020244915
:103A800000F098F82A463B4600F04EFB324643468B
:103A900000F0E2FD5A4601F050FA4A46534600F063
:103AA000E1F800F0ADF860615946606801F073FA22
:103AB00000F0BCFE05468846E06800F0B7FE074609
:103AC0000E460020124900F075F83A46334600F0E1
:103AD0002BFB0746A0680E4680F0004000F0A6FED3
:103AE0003A46334600F0B8FD5A4601F026FA2A4617
:103AF000434600F0B7F800F083F80246A061D4E92D
:103B00000401BDE8F05FFFF7FDBE000018000020D3
:103B10000000084000B5254B21F0004287B09A42D2
:103B200003DC0022134600922BE0214B9A4208D17D
:103B300040B94FF00100FCF7EDFBFFF798FD07B02F
:103B400000BD03DBFFF790FD07B000BD02AAFFF741
:103B50007DFA10F003014FF001000DD0012914D0BF
:103B600002291AD00DF1080C9CE80F00FFF732FC77
:103B700007B081F0004100BD0DF1080C00909CE8F9
:103B80000F00FFF7FBFC07B000BD0DF1080C9CE82F
:103B90000F00FFF71FFC07B000BD0DF1080C0090EF
:103BA0009CE80F00FFF7EAFCE2E70000FB21E93F99
:103BB0000000F07F2DE9F04106460F4600F066FC5C
:103BC00004000D4618BF0120284320F00040C0F13A
:103BD0007F6000F1E040C00F0ED0301C18BF012004
:103BE000384320F00040C0F17F6000F1E040C00F9A
:103BF00004BF0120FCF78EFB20462946BDE8F0817A
:103C000021F00042A2F16052B2F5801F01F00043A2
:103C100028BFD2F17F6C0BD95FEA001C43EAC202D5
:103C200042EB507018BF704728BF20F0010070476A
:103C3000B2F5801FBCBF184670474FEA410C1CF517
:103C4000001F02D2084601F09AB870B500F016FBCA
:103C500000000089FFF7F6BF4FF00040A0F580009C
:103C60007047000010B591EA030F48BF83F000438E
:103C700000F1FA84841A71EB030C05D2121943EB9C
:103C80000C03001B61EB0C01DFF824E14FEA115437
:103C9000A4EB135C1EEA430F18BF9EEA445F73D087
:103CA00023EA0E03DCF1200E21EA045143F48013D1
:103CB00032D322FA0CFE10EB0E0023FA0CFE41EB7D
:103CC0000E01CCF1200E03FA0EFE10EB0E0051F1A6
:103CD0000001B1F5801FCCF1200E32D201EB04516E
:103CE00012FA0EF2BDE8104058BF7047401C38BFB2
:103CF0005FEA420218BF7047002814BF20F001009D
:103D000041F100014FEA410313F5001F38BF70472E
:103D1000A1F1C04100F0A8BB012A43EB0302ACF1C2
:103D2000200CDCF11F0E32BF4FF0000E23FA0CF313
:103D300010EB030041EB0451B4EB115FD0D0A1EBC9
:103D4000045101F5801149085FEA300001EB04518C
:103D50000ED350F1000038BF12FA0EFE08D1BDE8B4
:103D60001040C9E7401C38BF5FEA4202CAD1C3E72E
:103D7000BDE810404FEA410313F5001F38BF7047FC
:103D8000A1F1C04100F070BB9EEA445F08D011EA87
:103D90005E0FBDE8104004BF01F0004100207047F5
:103DA000BDE8104070B500F069FA00BF64FBBE3E8C
:103DB0000000E0FF02494FF0000001F08CB800BFA6
:103DC0000000F87F2DE9C04130B4DFF8A0C23CEA22
:103DD000111418BF3CEA131400F0EC8081EA0305CB
:103DE0001CEA111444EAD57418BF1CEA131500F03C
:103DF000C780A4EB05044FF0004545EAC12145EA20
:103E0000C32341EA505143EA525304F17F7499426B
:103E100004F500344FEAC0204FEAC22208BF9042A6
:103E200000F09C804FEA13650FF24016765D4FEA72
:103E3000134506FB05F7C7F1807706FB07F74FEA46
:103E4000D737A7FB03687642C8F58038A7FB06CEB4
:103E500038BFA8F1010807FB08E64FF0000EA6FBEB
:103E6000028CE6FB03CEDCF1000CCEF1004E38BF35
:103E7000AEF1010EA6FB0C584FF000074FF0000505
:103E8000E6FB0E87A1FB08C6A0FB07CE16EB0E06CD
:103E900045F10005E1FB076515F1E04E7EBFA4F595
:103EA00080345FEA46066D4116F1800745F1000552
:103EB0004FEA17274FEA066647EA0567A6F1DE468E
:103EC000B6F1805F4FEA15251FD9384624F0010C62
:103ED00005EBC471BCF1FE6F01EB0C1102D8F0BC14
:103EE000BDE8008124425CBF01F5801E9EEAC47FCC
:103EF00002D4F0BCBDE80081244238D4F0BCA1F16A
:103F0000C041BDE8004100F0AFBA4FEAD22242EA18
:103F100043524FEAD323A7FB02864FEAD02040EA60
:103F2000415007FB03661EEA0E0F4FEAD12105FB45
:103F3000026658BFA6EB0056B6EB00564FEA520E8B
:103F40004EEAC37E18EB0E0E56EB530EBDD518EBA2
:103F500002085E417F1C55F10005B6E74FF480155D
:103F60004FF000074FF000064FF00008ADE7F0BC3F
:103F70004FF0000001F1C04101F00041BDE80081B7
:103F800011EA0C1F0CEA131500D00CE013EA0C1F09
:103F900000F025804FF00000F0BC81EA030101F041
:103FA0000041BDE80081F0BCBDE8004181EA0301A9
:103FB00000F05ABAF0BCBDE8004170B500F05EF9FF
:103FC000097EFC3E00F007B881EA03014FF00000D3
:103FD00001F00041704781EA030100F045BAF0BCEE
:103FE000BDE800414FF0000021497047FFFDFBF99B
:103FF000F7F5F4F2F0EEEDEBE9E8E6E4E3E1E0DE1C
:10400000DDDBDAD8D7D5D4D3D1D0CFCDCCCBCAC88D
:10401000C7C6C5C4C2C1C0BFBEBDBCBBBAB9B8B7B4
:10402000B6B5B4B3B2B1B0AFAEADACABAAA9A8A8A7
:10403000A7A6A5A4A3A3A2A1A09F9F9E9D9C9C9B75
:104040009A99999897979695959493939291919020
:104050008F8F8E8E8D8C8C8B8B8A898988888787B1
:104060008685858484838382828181800000FF0726
:104070000000F87F4FEA41034FEA5353A3F58063F2
:10408000D3F11E03C8BFD3F1210C0CDD4FF0004269
:1040900042EAC12242EA505232FA03FC8CEAE17C45
:1040A000ACEBE1707047102BC4BF0020704703F5E4
:1040B000787CBCF1FF3F04D06FF0004282EA21001F
:1040C000704770B500F0DAF84992248000207047FC
:1040D000F2E710F0004248BF4042B0FA80F310FA15
:1040E00003F10AD0C3F11D0303F580634FEA415089
:1040F00002EB035202EBD12170474FF000007047F2
:10410000B0FA80F310FA03F10AD0C3F11D0303F5EE
:1041100080634FEA41504FEA035202EBD1217047CE
:104120004FF0000070470000DFF848C170B51CEA8E
:10413000111E1EBF1CEA13159EEA0C0F95EA0C0F08
:1041400000F06F8081EA030423EA4C134EEAD47E28
:1041500021EA4C1141F4801143F48013AE44A1FBD9
:10416000024CA0FB0365AEF17F7E361955EB0C05C2
:10417000A1FB034C4CF10003A0FB021C16EB0C0648
:10418000654153F10003094218BF46F0010613F4DC
:10419000007F0BD14FEA03314FEA0530340341EA87
:1041A000155140EA16506FF003020AE04FEAC321AE
:1041B0004FEAC520F40241EA555140EA56506FF0EB
:1041C000020202EB2E4201EB025585EACE710AD0C3
:1041D0005FEA440C18BF24F0004450F1000041F1A4
:1041E000000120EAD47040F2FE7C624500D270BD2E
:1041F000A84214BF4FF080444FF04044002E08BF47
:104200000024BEF1806FA8BFA1F1C041BDE870409D
:1042100080F22A814FF0000001F1C04101F000411D
:1042200070479EEA0C0F0CEA131518BF95EA0C0FA5
:1042300006D04FF0000081EA030E0EF0004170BD81
:1042400000F01CF88900013E00F007B800F009B842
:104250004FEA430C5FEA5C5C08D081EA030100F09E
:1042600003B94FEA410C5FEA5C5CF6D14FF0000005
:10427000014970470000FF070000F87F0EF1020EB1
:104280002EF0030E5EF8046B364205D4012A43EB90
:10429000030515F5001F12D8012841EB010C1CF590
:1042A000001F0CD80ED14FEAD17C15F5001F0CEB86
:1042B0004C0C0CF1020C08BF4CEBD37C04E04FF02B
:1042C000080C01E04FEAD37C0CEB4C0526FA05F60E
:1042D00006F00706B6F1040C06D20EEB860CBDE81C
:1042E00070404CF0010C6047DFE80CF0090B020253
:1042F0004FF000414FF00000A1F5002170BD1946BC
:104300001046012851EB010418BFD4F5001484BFF6
:10431000002001F0004170BDDFF844C170B53CEAF7
:10432000111418BF3CEA131500F08F8011F1004FF3
:104330001CEA13150CEA111468BF45F0050518BFF7
:1043400011EA0C1F00F079802E4621EA4C1123EA75
:104350004C1341F4801143F48013A5F58035AC4231
:104360003DDD801A9941A4F5803609D54042C1F15E
:10437000000134BFB1F10101B1F1000185F0010587
:1043800011F4F01F08D011F4801FE8D1400041EB78
:104390000101A4F58034F6E721F00041B1FA81F67D
:1043A000202E04BFB0FA80FE0EF12006A6F10B0607
:1043B000B6F1200EA4EB06440CD2C6F1200E01FA91
:1043C00006F120FA0EF641EA0601CEF1200600FAC7
:1043D00006F003E000FA0EF14FF00000BFE750EAEC
:1043E000410E23D04FEA244EBEEB254F0FDB9942FE
:1043F00008BF904204D00AD3520043EB0303B0E756
:104400004FEA1646B6EB144F08BF85F00105B4F528
:10441000803401EB041181EAC57100DB70BD01F14C
:10442000C0414FF0000001F0004170BD4FEA4571FE
:104430004FF0000001F0004170BD1CEA131F09D0CD
:104440004FF0000001F0004170BDFFF717FF00BF03
:10445000EDFFFF3EBDE870404FF00000014970479E
:104460000000FF070000F87F0808A0F500114FEAE0
:104470003101704791EA030F10B581F000413FF51B
:10448000F9AB83F0004300F0EFB800002DE9F041F4
:1044900001F5801CBCF5001FC0F2C3804FEA115C1F
:1044A00021EA0C510CF1FD0C41F480115FEA5C0C27
:1044B0000CF5C07C01D3400049413DA4890241EA8A
:1044C000905187028E0E0A0CA45D04FB04F602FBD9
:1044D00006F6C6F14046A4FB0662F60D46EA422601
:1044E00006FB06F4A4FB01235242C3F1404338BF4C
:1044F0005B1EA6FB02420024E6FB0324D20B42EA29
:104500004446A6FB0623A1FB02E2A3FB07E4A41892
:104510004FF0000252F10002E3FB01426442C2F19B
:10452000404E38BFAEF1010EA6FB04234FF000024F
:10453000E6FB0E32A2FB03464FF00004B61954F11D
:104540000004E2FB0264A1FB06E6A4FB07E816EB0D
:1045500008064FF0000858F10008E4FB01687642B5
:10456000C8F1405838BFA8F10108A2FB06E4A3FB3C
:1045700008E52D194FF0000454F10004E2FB085443
:10458000A1FB05E6A7FB04E818EB06084FF00006C0
:1045900056F10006E1FB048618F1200556F10006ED
:1045A000A809A8F11B08B10908F03F08B8F10A0FE3
:1045B00040EA86601CD901EB0C51BDE8F08100BFD8
:1045C000FCF5EEE8E2DDD8D3CFCBC7C3C0BDB9B6AA
:1045D000B4B1AEACA9A7A5A3A19F9D9B9A989695AF
:1045E0009392908F8D8C8B89888786858483828136
:1045F000A0FB006800FB01F208EB4208B8EB87283B
:1046000007D5341858EB0104D5D5401C51F10001F1
:10461000D1E7341A78EB0104CDD4401E71F10001CA
:10462000C9E75FEA4C0C5FEA9C5C0DD105D34FF003
:10463000000001F00041BDE8F081BDE8F04170B537
:10464000FFF71CFE6DDBFFBEBDE8F0414FF0000040
:10465000004970470000F87F10B591EA030F48BF8A
:1046600083F000433FF506AB841A71EB030C07D2CD
:1046700012198CF0004C43EB0C03001B61EB0C0196
:10468000DFF8A4E14FEA1154A4EB135C1EEA430FD8
:1046900018BF9EEA445F00F0B08023EA6E035242E6
:1046A00021EA0451C3EB6E0338BF5B1EDCF1200E20
:1046B00025D322FA0CFE10EB0E0043FA0CFE41EB60
:1046C0000E01CCF1200E03FA0EFE10EB0E0051F19C
:1046D0000001CCF1200E29D412FA0EF201EB0451A4
:1046E000BDE8104058BF7047401C1CBFB2F1004FDE
:1046F000704700280CBF491C20F00100704712EBE6
:10470000020E43EB030218BF4FF0010E4EEA4202C5
:10471000ACF1200CDCF11E0E54D943FA0CFE10EB68
:104720000E0051F1FF31CCF11E0ED5D50EF1010E68
:1047300012FA0EFE404141EB010101EB445C5FEADD
:104740005C5C10D910EBDE7001EB045138BFBEF198
:10475000004FBDE8104018BF704700280CBF491C2F
:1047600020F00100704730D24FEAD42C11F500112F
:1047700024F400641BD0B1FA81F20B3AA41AA41EEF
:10478000D2F12003914030FA03F31943904001EB3A
:10479000CC71002C01EB0451BDE81040A8BF70475C
:1047A00001F1C0414FF0000001F000417047B0FA44
:1047B00080F310FA03F100D110BDE41A173C48054C
:1047C000C90AE4E701EB045110BD491001EB0451A3
:1047D000BDE810404FEA300002E04FF000017047A2
:1047E0004A0008BF0042F8D0B2F5001F28BF70474A
:1047F00001F000414FF0000070479EEA445F07D08F
:1048000011EA5E0FBDE8104004BF00210020704790
:10481000BDE8104070B5FFF731FD00BF40DFF63E48
:1048200083F00041104670470000E0FF43004FEA6C
:10483000D30C4FEA3C0C43401FBF40070CF16051C2
:1048400013F0FE4F70471CF0006F03D100200CF0F6
:10485000004170470CF0004343EA507010B540EA45
:10486000CC0000F046FA00BF000000924FEA0001C1
:10487000FFF7FABD4FF000414FF00000A1F5002115
:104880007047000090EA010F48BF81F0004100F13D
:10489000B482421A3CBF801A89184FEAD0524FF0B6
:1048A0007F4C1CEA410FA2EBD15318BF9CEA026F68
:1048B00000F03B804FF0004C4CEA00204CEA012114
:1048C00021FA03FC10EB0C0C1ED202F1FF325FEA5E
:1048D0001C2040EBC25038BF70471CF07F0F4FEADE
:1048E000400C18BFBCF17F4F38BF7047C3F12003A5
:1048F000994008BF20F00100BCF17F4F38BF7047DE
:10490000A0F1C04000F03BBA4FEA3C00000A40EB87
:10491000C25028BF1CF0FF0F4FEA400CE6D018BF72
:10492000BCF17F4F38BF7047EAE79CEA026F05D0C1
:1049300010EA5C0F08BF00F00040704710B500F0AF
:10494000D8F900BF64FBBE3E014800F0C4BA00BF06
:104950000000C07F401058BFC0F14040491058BF10
:10496000C1F140418142EFF3008070474FF47F0C6A
:104970001CEAD0121EBF1CEAD11392EA0C0F93EA74
:104980000C0F00F0858090EA010F48BF42F480725E
:1049900040F4000C41F400002CF07F4120F07F40F7
:1049A00000B58142A2EB03020FF2081CACEB504EA3
:1049B000C0F100009EF800E04FEA4E0E00FB0EFC36
:1049C00038BF49004FEA2C1C02F5FA020CFB0EF32B
:1049D0004FEACE1E4FEA112C4FEAC1210EEB635E67
:1049E00042EB22420EFB0CFC4FEA1C5300FB03116E
:1049F0004FEA112C4FEA01310EFB0CFC4FEADC4C64
:104A000000FB0C11C14228BF09184CEB03335DF8C1
:104A100004EB10EB410143EBC250B2F57C0F38BF01
:104A2000704729D512F0F00F1CBF00F1C04000F014
:104A300000407047008182838485868788898B8CBB
:104A40008D8E8F919293959697999A9C9D9FA0A2F7
:104A5000A3A5A7A8AAACAEB0B2B3B5B7B9BCBEC047
:104A6000C2C5C7C9CCCED1D4D7D9DCDFE2E6E9ECE8
:104A7000F0F3F7FAFE0000004FEA400C0CF1807CE6
:104A8000BCF17E4F28BF7047B0F1C04000F077B94D
:104A900090EA010F0CEAD11348BF42F480726245DC
:104AA00038BF634507D213F47F0F16D080EA0100A8
:104AB00000F00040704710B500F01BF9097EFC3E85
:104AC00000F005B880EA010000F00040704780EA7D
:104AD000010000F0004000F052B912F47F0F04BF53
:104AE0000248704780EA010000F049B90000C07F29
:104AF000C10DD1F19E0206DB4FEA002343F00043D3
:104B000023FA02F07047004207D54FEA4001B1F1A5
:104B1000FE4F02D24FF00000704710B500F0E9F8E8
:104B200049922480002070476FEA200070470000FF
:104B300010F0004148BF4042B0FA80F310FA03F28F
:104B4000C3F19D030BD051EAC35101EB1220530670
:104B500038BF704700F1010008BF20F00100704726
:104B6000B0FA80F310FA03F2C3F19D030AD0D9051D
:104B700001EB1220530638BF704700F1010008BF57
:104B800020F001007047000050EA010C00F1138092
:104B90001CF5000F58BFBCF5000F01D488427047C8
:104BA00007D710F5000F58BF11F5000F15D4884234
:104BB0007047894270471CF5000F04D5BCF5000F03
:104BC000F7D5814270474FF0807C1CEB400F38BF17
:104BD0001CEB410F01D28142704710B500F089F8FB
:104BE000922449004FF000504FF08051FFF7B2BEC1
:104BF0004FF47F0C1CEAD0121EBF1CEAD11392EABC
:104C00000C0F93EA0C0F00F0478090EA010F48BFA9
:104C100042F480724FF0004C4CEA00204CEA012133
:104C200002EB0302A0FB0113A2F50002002918BF4A
:104C300043F001035B0028BF4FEA330342EB2242FB
:104C40005FEA132C4CEBC2502EBFBCEB436FB2F5A6
:104C50007C0F70474FEA036CBCF1004F08BF20F097
:104C60000100B2F57C0F38BF70470BD582F0FF0210
:104C700012F5803FC8BF704700F1C040D8BF00F0B8
:104C80000040704700F5000C5FEA4C0C48BF7047CD
:104C9000B0F1C04000F073B890EA010F0CEAD113F4
:104CA00048BF42F48072624538BF634504D280EA4F
:104CB000010000F00040704710B500F01AF800BF86
:104CC0008900013E00F007B800F009B85FEA410C26
:104CD0005FEA1C6C08D080EA010000F050B85FEA7F
:104CE000400C5FEA1C6CF6D14FF00040A0F580004C
:104CF00070470EF1020E2EF0030E5EF8044B2442B4
:104D000004D44FEA4102B2F17F4F11D84FEA400379
:104D1000B3F17F4F0CD80ED14FEAD07CB2F17F4F68
:104D20000CEB4C0C0CF1020C08BF4CEBD17C04E0FA
:104D30004FF0080C01E04FEAD17C0CEB4C0324FA55
:104D400003F404F00704B4F1040C06D20EEB840C57
:104D5000BDE810404CF0010C6047DFE80CF007089C
:104D600002024FF00040A0F5800010BD084642004E
:104D700018BFD2F1807288BF00F0004010BDFF2143
:104D800041EAD050C005704751EA000C00F1138091
:104D90001CF5000F58BFBCF5000F01D481427047CD
:104DA00007D711F5000F58BF10F5000F15D4814239
:104DB0007047894270471CF5000F04D5BCF5000F01
:104DC000F7D5884270474FF0807C1CEB410F38BF0D
:104DD0001CEB400F01D28842704780EA010081EA53
:104DE000000180EA0100FFF7F8BE000090EA010F21
:104DF00048BF81F000413FF54CAD421A04D882F023
:104E00000042A0EB020011444FEAD0524FF07F4C19
:104E10001CEA410FA2EBD15318BF9CEA026F4AD0A3
:104E20004FF0004C4CEA00204CEA012121FA03FC2F
:104E3000B0EB0C0C0FD412F0FE0F36D05FEA4C0032
:104E40001DD5001240EBC25038BF70471CF03F0F19
:104E500018BF70470BE0A2F101025FEA1C2040EB93
:104E6000C25038BF70471CF07F0F18BF7047C3F1A6
:104E70002003994014BF401E20F0010070478008B5
:104E80004FEA122308BF7047B0FA80FCA2EB0C0275
:104E9000CCF1280C60FA0CF093EA122F04BF00EB5F
:104EA000C25070474FEAC3707047130A5FEADC10C4
:104EB00008BF7047F6E79CEA026F04D010EA5C0F67
:104EC00008BF0020704710B5FFF713FF40DFF63E24
:104ED00081F0004070470CF00F03092B08BF082039
:104EE00000F07F800A2B0BD0082B18BF704708BF3B
:104EF0001CF0400F0AD04FF000004FF00001704747
:104F00001CF0400F18BF4FF0004070471CF0100F0E
:104F100008D020F0704300F07F4242EAD3014FEA0C
:104F20004370704700F0604021F07F4242EA000287
:104F300001F07F4040EA727070474FF0FF0C4CF474
:104F4000E06C1CEA11531CBF9CEA030C9445C2BFE1
:104F5000DA4201EB02517047002B0DD0BCF1000F7B
:104F60000FD0002A01F00041A4BF41F0E04141F020
:104F70007F614FF00000704701F000414FF00000EA
:104F8000704750EA01334FF09B0C18BF4CF0806C17
:104F90007EF410AF70474FF0FF0212EAD0521CBFF0
:104FA00092F0FF038B42C2BFD14200EBC150704769
:104FB000002A0AD0002B0BD0002900F00040A4BF2B
:104FC00040F0FE4040F40000704700F000407047A1
:104FD00043024FF00B0C18BF4CF0806C7FF4B4AC64
:104FE00070471CF4801F11D01CF4E02F03D06FEA2F
:104FF000CC31490070474FF04050EFF3008222F06F
:10500000704242EA000282F3008870474FF00000CD
:105010007047010202030405060708090A0B0C0D7C
:105020000E0F101000000000000000000102030439
:105030000607080900000000010203040000000048
:105040004C5555555555A53F7751C1166CC156BFA6
:105050009015CB19A001FA3EAD529C804F7E92BEB6
:10506000C4B1B4BD9EEE213ED43888BEE9FAA8BDD5
:1050700000004054FB21F93F3163621A61B4D03D16
:105080000000601A61B4D03D7370032E8A19A33BEF
:105090000000002E8A19A33BC14920259A837B3941
:1050A00000000000000000006E83F9A22915444EA4
:1050B000D15727FCC0DD34F5999562DB4190433C24
:1050C000AB6351FE61C5BBDE3A6E24B7E0D24D4200
:1050D000EA2E49061C92D1091CEB1DFE3EA729B100
:1050E000F53582E88444BB2E26709CE9417E5FB48E
:1050F00039D69139F43953838B5F849C3B28F9BDB1
:10510000FF97F81F0F9805DE8B112FEF1F6D0A5ABE
:10511000CF7E366DB709CB27663F464F2DEA5F9E9F
:10512000C7BA27757BF1E5EBF739073DEA92528A5A
:10513000B15FFB6B085D8D1FA6F810111111813F47
:10514000D561C119A0012ABF7DFEB157E31DC73E3D
:10515000EB9C2B8AE6E55ABE7CD5CF5A3AD9E53D81
:1051600080510008000000205400000028010008C1
:10517000D451000854000020FC0B0000440100083A
:105180000000F6420000A0400100000010000000F6
:105190000000000000127A00000030419A99494155
:1051A00000000000000000000000000000000000FF
:1051B00000000000000000000000000000000000EF
:1051C00007000000FFFFFFFF9A99993E00000000D2
:0451D00000000000DB
:04000005080000ED02
:00000001FF
