:020000040800F2
:10000000D00B0020AD010008E34500084B3D00087F
:10001000E1450008BD1E0008C54E000800000000B4
:10002000000000000000000000000000F946000889
:100030000F1F000800000000E5450008FB4600080F
:10004000C7010008C7010008C7010008C701000870
:10005000C7010008C7010008C7010008C701000860
:10006000C7010008C7010008C7010008C11E000839
:10007000C7010008C7010008C7010008C701000840
:10008000CD1E0008D91E0008C7010008C7010008DE
:10009000C7010008C7010008C7010008C701000820
:1000A000C7010008C7010008C7010008C701000810
:1000B000C7010008C7010008C7010008C701000800
:1000C000C7010008C7010008C7010008C7010008F0
:1000D000C7010008C7010008B14E0008C7010008A9
:1000E000C7010008C7010008C701000800F002F8B6
:1000F00000F04DF80AA090E8000C82448344AAF175
:100100000107DA4501D100F042F8AFF2090EBAE872
:100110000F0013F0010F18BFFB1A43F0010318473B
:10012000FC7300001C740000103A24BF78C878C12A
:10013000FAD8520724BF30C830C144BF04680C60ED
:10014000704700000023002400250026103A28BF35
:1001500078C1FBD8520728BF30C148BF0B60704739
:10016000662907F04480002070471FB500F08AFB25
:1001700004000020002105F0F5FD401C6060002017
:10018000002105F0D9FDE0601FBD10B510BD00F0E5
:10019000A1FC1146FFF7E9FF05F07EFB00F01AFF16
:1001A00003B4FFF7F2FF03BC01F080F90948804770
:1001B00009480047FEE7FEE7FEE7FEE7FEE7FEE749
:1001C000FEE7FEE7FEE7FEE704480549054A064B61
:1001D0007047000077470008ED000008D0050020B8
:1001E000D00B0020D0070020D00700200FB41CB592
:1001F000074B06AA7B4469460090059800F0D9FA9F
:100200000020694600F0E8FA1CBC5DF814FB000011
:10021000E10500002DE9F0410E4604460020206271
:100220002046E168884730B3252805D0D4E901216C
:100230009047206A401CF2E7E16820460027884783
:10024000050018D0A5F14100192802D820354FF437
:1002500000673246294620462760FFF781FF40B1FC
:10026000012804D0F61D26F007060836D8E7361D0B
:10027000D6E72846DAE7206ABDE8F08110B5203AD3
:10028000C0F00B80B1E81850203AA0E81850B1E84F
:100290001850A0E81850BFF4F5AF5FEA027C24BF05
:1002A000B1E81850A0E8185044BF18C918C0BDE8FC
:1002B00010405FEA827C24BF51F8043B40F8043BC5
:1002C00008BF7047D20728BF31F8023B48BF11F87A
:1002D000012B28BF20F8023B48BF00F8012B7047D4
:1002E0004FF000020429C0F0128010F0030C00F05F
:1002F0001B80CCF1040CBCF1020F18BF00F8012BDD
:10030000A8BF20F8022BA1EB0C0100F00DB85FEAAA
:10031000C17C24BF00F8012B00F8012B48BF00F876
:10032000012B70474FF0000200B5134694469646E5
:10033000203922BFA0E80C50A0E80C50B1F12001F8
:10034000BFF4F7AF090728BFA0E80C5048BF0CC0A6
:100350005DF804EB890028BF40F8042B08BF704704
:1003600048BF20F8022B11F0804F18BF00F8012B76
:10037000704770477047704710B500F087FA006803
:1003800010BD10B5044600F081FA046010BD70473E
:100390002DE9FF4F0C461E464FF0FF378BB0D2E9D8
:1003A0000001DDF860800A908A46C1F30A5505B95C
:1003B0003D46002108464FF00000BAF1000F00F45E
:1003C000400005DA00EB80004FF4400101EA5000E4
:1003D0004FEA9059B9F1010F00DDB9460A9850EA89
:1003E0004A000ED044F61050A5F2FF3545432F14B5
:1003F000B8F1000F1ED07542291E1EDDC9F10002A2
:100400001CE0B8F1010F4FF0000001D0302103E0F3
:10041000F24305E02154401CB042FBDB3046002291
:10042000002121540B99C1F80880C1E900200FB0C8
:10043000BDE8F08FBD1B6D1CDEE74A4600DA69425D
:1004400006A800F0D5FA06AB93E8070003AB83E8F3
:10045000070050460A9901F051F88DE80700A0F511
:1004600000501F3800900398002D09DD42F21F0153
:100470004A46084403A90390684601F0DAFA08E006
:10048000A0F500504A461F3803A90390684601F0C2
:10049000F8FA8DE807000004000C03D04FF0FF309D
:1004A000410800E01046B8F1000F03D0002200928E
:1004B00015461EE0751E05D400F0ECF93032625589
:1004C0006D1EF9D5B3460122084302D000227F1CDD
:1004D00004E02078302801D100227F1E002A0997ED
:1004E00086D01DE0112D07DA00F0D4F930326255C4
:1004F0006D1C50EA0102F5D1084302D00098C8B142
:100500000EE00021681E05E0235C625C6354225407
:10051000401E491C8142F7DBAB46A81B401E0990D8
:10052000002004F80B000B98099AC0F80880C0E975
:10053000002B7CE711264FF0000859E72DE9F04F1A
:1005400088460446D21D22F0070191B0D1E900018E
:10055000CDE90A0104F0B7FC02460B98C00F01D0A8
:100560002D2007E02068810701D52B2002E0202103
:1005700001EAC000032A099001D0072A05DB0346DF
:100580004146204600F0D4F90BE12078800601D5E1
:10059000E06900E00620B8F1650F814606D0B8F1A9
:1005A000660F18D0B8F1670F70D131E00020B9F1B3
:1005B000110F009001DB112301E009F101030AAAE8
:1005C00001A90CA8FFF7E4FEDDE90C70002609F193
:1005D0000105834647E001204B4600904FF000475D
:1005E0000AAA01A90CA8FFF7D3FEDDE90DB00C990A
:1005F0005D46002610B909F101000D18B9EB0500A0
:1006000003D4C0F1FF3609F10105A5EB09002BE089
:10061000B9F1010F01DA4FF001090020B9F1110F12
:100620000090484601DD112300E003460AAA01A913
:100630000CA8FFF7ADFEDDE90C704D4600268346A1
:10064000207800070AD4AB4500DA5D4601A8012DE9
:1006500004DD411911F8011C302907D04F4502DA99
:1006600017F1040F04DA012082460FE06D1EEEE759
:10067000002F02DCED1B3E4403E0781CA84200DDA5
:100680007D1CB81B00F1010A4FF0004720780007DD
:1006900003D4AA4501DB4FF0FF3A0021B7F1004F28
:1006A0000DF143088DF8431024D002202B23002F96
:1006B00001DA7F422D230A21021EA0F1010000DC95
:1006C0005FB197FBF1FC97FBF1F201FB1C7C174635
:1006D0000CF1300C08F801CDEEE7A8F10100037031
:1006E0002188090501D5452100E06521A0F1010817
:1006F00000F8011C09980FA9A1EB0807FF1D00B124
:100700000120411901EBEA70A1693844081A401E22
:10071000A0612078C00602D42046AFF3008009987B
:1007200028B1D4E901219047206A401C206220783A
:10073000C00622D52046AFF300801EE0002E04DB69
:10074000B34502DD01A8805D00E03020D4E901213D
:100750009047206A401C2062761CAAF101005FEAE3
:10076000000A0AD100F08EF8C0680168405CD4E944
:1007700001219047206A401C2062281EA5F1010536
:10078000DCDC07E0D4E9012118F8010B9047206A6E
:10079000401C2062381EA7F10107F3DC2046AFF3AE
:1007A0000080032011B043E601694A1C0261087809
:1007B000704700B58FB0CDE90131002105910549A1
:1007C0007944CDE9031011466846FFF723FD0FB0C9
:1007D00000BD0000E5FFFFFF0A6802F8010B0A6098
:1007E000704700000FB4002300B589B00CA9009138
:1007F0000B99CB60204B7B440693204B7B440793A3
:1008000004236FF00042CDE901321D4A7A446B4661
:1008100008920246002006F072FD09B05DF814FB54
:1008200070B506464FF0FF3015460C46324686B08E
:100830000091CDE9010169460020049004A8FFF76A
:10084000D1FF03460498211825B108B10A4600E0FB
:1008500022462A6000280DD0002B02DD0098884235
:1008600008D03246081B69460094CDE9010404A86B
:10087000FFF7B8FF06B070BDB7010000CF01000060
:100880000F010000004870479005002000487047A5
:100890007005002030B5B0F10A024FEA900E71F1F8
:1008A00000034EEA817EB0EB0E0061EB91014FEA4E
:1008B000101E4EEA017E10EB0E0041EB11114FEAC3
:1008C000102E4EEA016E10EB0E0041EB11214FEAA3
:1008D000104E4EEA014E10EB0E0041EB1141401854
:1008E00041F100014FEAD00040EA41704FEAD101E6
:1008F00010EB80054FEA810444EA907444EB010454
:100900006D1944EB0404521BA3414FF0000348BF90
:100910000A3200D530BD401C41F1000130BD10B598
:10092000044600F0FDF80068005D00F0010010BD15
:100930002DE9F0411F46044603260168072A01F409
:10094000006004DB08B116A505E016A503E008B1B8
:1009500015A500E015A521F010002060A069C01EBB
:10096000A0610FB1401EA0612046AFF300804FB1DF
:10097000D4E9012138469047206A401C2062C01CFF
:10098000206206E0206AFAE7D4E9012115F8010B9C
:100990009047761EF8D22046AFF30080BDE8F08184
:1009A0004E414E006E616E00494E4600696E660013
:1009B000426842B1016811F8013B23B1521EC0E9FF
:1009C0000012184670470121C160881E70474268B6
:1009D0005AB1C368016843B983688B4205D0491E88
:1009E000521CC0E90012002070474FF0FF307047E2
:1009F0002DE9F047814616468AB0334878440DC841
:100A00008DE80D0030487844801C03AC0DC884E8A4
:100A10000D0041F69B300844372190FBF1F290FB2A
:100A2000F1F5A5F1800501FB12041B3C02D56442DF
:100A3000012000E00020DFF890A080460027FA4463
:100A4000AAF1BE0A0DE0E00709D03246684607EB7E
:100A500047010AEB810101F014F88DE807006410EA
:100A60007F1C002CEFD1184F7F44AC3F18E0E80703
:100A700014D007EB04100DF1180A90E80E008AE874
:100A80000E00C068F04201D198190890324606A9BC
:100A900003A800F0F6FF03AB83E807006D10641CA9
:100AA000002DE4D132466946B8F1000F03A802D008
:100AB00000F0BFFF01E000F0E4FFC9E90001C9F860
:100AC00008200AB0BDE8F087046B000000487047BA
:100AD000700500207546FFF7F9FFAE460500694630
:100AE000534620F00700854618B020B5FFF76CFB91
:100AF000BDE820404FF000064FF000074FF000081F
:100B00004FF0000B21F00701AC46ACE8C009ACE89F
:100B1000C009ACE8C009ACE8C0098D4670470000C8
:100B200010B5FFF7AFFE001D10BD00BF3952000029
:100B30002DE9FF4F064689B00878FF2806D0491CEA
:100B40002D2805D000244FF0000908E000200CE01B
:100B50000124F8E709EB8903491C00EB43090878F5
:100B6000FF28F7D114B1C9F10000814610780025A3
:100B70002C46AA4629462D2801D02B2804D1521CE8
:100B80002D2813D0002082468B461078FF280FD0E6
:100B90004FF0000C0A21521CA5FB017804FB0181D7
:100BA00005FB0C11C5194BEB0104EEE70120EAE748
:100BB000002108464FF00000BAF1000F02D000EB10
:100BC00080004008C0F38158B8F1010F01DD4FF0FB
:100BD000FF380C9809EB000755EA040009D04FF0E4
:100BE000020917F5FA7F0BDA4FEACA70C6E900B0BE
:100BF00012E04FEACA70C6E900B00DB0BDE8F08F50
:100C0000B7F5FA7F0DDDF0487844D0E90010C6E969
:100C1000001040EACA707060FFF738FEC0F800901C
:100C2000EBE7391E02DAC8F1000200E0424600DAC2
:100C3000794206A8FFF7DCFE06AB93E8070003AB9A
:100C400083E8070044F23E005BEA04010090584646
:100C500004D144F21E012C465D460091210C09048A
:100C6000014306D10099240444EA15442D041039A7
:100C7000009104F07F41014306D10099240244EA27
:100C800015642D020839009104F07041014306D12A
:100C90000099240144EA15742D01091F009104F004
:100CA0004041014306D10099A40044EA9574AD0087
:100CB000891E009104F00041084304D100986D1989
:100CC0006441401E009042466846002FCDE9014530
:100CD00003A902DD00F0E9FE01E000F0BEFEBAF17A
:100CE000000F04460D4601D084F0004440F2FF7727
:100CF00024F00040284303D0C4F30A50B84212D174
:100D0000FFF7C4FDC0F80090C4F30A50B8420AD1FE
:100D1000AE487844D0E90010C6E9001004F0004164
:100D20000843706069E7C6E9005466E72DE9FF4FA4
:100D30001F464FF0000A4FF0FF38454691B0D7E903
:100D40000146CDF83CA0FFF79DFDC0680168405CFE
:100D50001090B96912986D1C8847396A8146884796
:100D60000028F6D1B9F1FF3F0AD0002E24F4D06458
:100D700011DDB9F12B0F08D0B9F12D0F0BD102E025
:100D8000404615B03AE744F48064B96912986D1C86
:100D90008847761E8146600504A901D52D2000E014
:100DA0002B20002E01F1010B0DF130088DF8100001
:100DB0003FDDB9F1690F08D0B9F1490F05D0B9F19C
:100DC0006E0F02D0B9F14E0F1CD13B4601A8009521
:100DD00080E85002DDE912126FF0020006F093FA8B
:100DE000C11CCED10EE0B96912986D1C88478146AE
:100DF0001398761E44F4007405600F98401C002E72
:100E00000F9016DDB9F1300FEDD0B9F1780F02D0A7
:100E1000B9F1580F0DD10F9801280AD13B46CDE901
:100E20000054DDE91212001F029606F06AFAC11C96
:100E3000A7D1109989453ED144F0800406E013996A
:100E4000681CAAF1010A44F400740860B9696D1CB9
:100E50001298761E884730288146F0D02BE01099F2
:100E6000894505D1200603D4761E44F0800418E09D
:100E7000484604F0DDFB08B3761E0DF123018B45D7
:100E800044F4007408D2A9F130000BF8010B2006DD
:100E900007D5AAF1010003E0200602D40AF10100FF
:100EA0008246A00502D51399681C0860B96912989A
:100EB0006D1C88478146002ED1DC53E0002E51DDA9
:100EC000B9F1650F02D0B9F1450F4BD1A00549D555
:100ED000B9696D1C1298761E24F440748847002E60
:100EE00081460CDD2B2804D0B9F12D0F07D144F435
:100EF0008074B96912986D1C8847761E8146E0059A
:100F000001D52D2100E02B2108F8011BCDF8008030
:100F100021E0761E0DF13901884544F400740CD2AD
:100F2000A9F1300010F0FF0088F8000002D100990C
:100F3000884509D908F1010806E0E00501D52448F3
:100F400001E042F20F708246B96912986D1C884721
:100F5000814613980560002E04DD484604F068FBC6
:100F60000028D6D1F96912988847FF2053468BF89C
:100F7000000088F8000000200A900B9004AA0CA939
:100F80000AA8FFF7D5FDA00502D46FF00100F8E62E
:100F900014F0240F0AD0E00714D13868DDE90A12F2
:100FA000031D3B600068C0E900120BE00AA9684617
:100FB00004F0D4FAE00705D13868009A011D3960C1
:100FC000006802602846DCE6306900002668000000
:100FD000F1D8FFFF0446AFF300802046FFF7E0F8AA
:100FE0004FF0013C50F8042B51F8043B9A4221D1B8
:100FF000A2EB0C03934313EACC1317D150F8042B44
:1010000051F8043B9A4215D1A2EB0C03934313EA27
:10101000CC130BD150F8042B51F8043B9A4209D160
:10102000A2EB0C03934313EACC13DBD04FF0000088
:10103000704700BFD01A01BAB1FA81F101F018016E
:1010400022FA01F0CB40C1F12001DBB2C0B2C01ADC
:101050002CFA01F3D11A914311EAC311E6D170477A
:101060002DE9FF4F1F464FF03C0987B04FF000427B
:10107000DDE9141001F10108DDF858A002EA405042
:101080000390002004908346054604460590B96904
:10109000461E08988847AAF1010A0290BAF1000F8B
:1010A00037DD02982E2815D0102100F018FA0028FC
:1010B0002ADB4FF0010B0499014316D0B9F1000F60
:1010C0000BDB4A46C11700F0F7F905430C43A9F1C1
:1010D000040905E00120059007E008B145F001058D
:1010E00001200490059800B9361DB969089808F1E7
:1010F00001088847BBF1000FAAF1010A0290CDD088
:101100000999C1F80080C9E70298702808D05028D2
:1011100006D0F96908988847BBF1000F14D04FE05A
:10112000002002900120BBF1000F049009D0B969A2
:10113000089808F101088847AAF10109B9F1000FE0
:1011400007DCF969089888476FF001000BB0BDE82B
:10115000F08F2B2804D02D280CD14FF0FF300490B5
:10116000B969089808F101088847A9F10109B9F19E
:10117000000FE6DD411CE4D00A2100F0B0F90028A0
:10118000DFDB029908F1010801EB810100EB41006E
:101190000290B969089888470A2100F0A0F9099AD5
:1011A000A9F10109B9F1000FC2F8008001DD0028A2
:1011B000E7DAF969089888470499029800FB016604
:1011C00055EA040004D004F04041090002D006E0D2
:1011D000039898E0A40044EA9574AD00B61E04F0AC
:1011E0000041080002D16D196441761E159810F077
:1011F000240F03D04FF00B095C4803E04FF028099F
:101200006FF07D008246564507DAAAEB0601894455
:10121000B9F1410F01DD4FF0410901200021A9F191
:10122000010200F049F9024628400B4621400843DC
:1012300001D0012100E00021501E029143F1FF3155
:1012400028402140084301D0012000E000200299FD
:10125000834651EA0B014FD0002108464FF00000B1
:10126000039900F4400039B100EB80004FF44001D5
:1012700000EBD07001EA60008015012802DD4FF01C
:10128000FF3000E013D0401C36D0029860B3BBF1B1
:10129000000F0CD14A460120002100F00DF9284032
:1012A0002140084301D0012000E00020E0B10120EE
:1012B0004A46002100F000F9034640190A46614100
:1012C0002D1A8C4111D3B9F1400F09DD159810F09A
:1012D000240F02D0AAF1340603E0AAF1170600E0B9
:1012E000761C00254FF0004406E05B1E42F1FF3201
:1012F00020EA030521EA0204CAF10100B04206DA3D
:101300001B49039808430190002000900EE0039AC7
:10131000C4F3D321E80A0A43164940EA44500A4379
:101320003146CDE90002684604F064F9159810F0E2
:10133000240F0BD01598C00715D13868DDE90012CD
:10134000031D3B600068C0E900120CE002A869467A
:1013500004F004F91598C00705D13868029A011DF8
:101360003960006802604046F0E6000002FCFFFFC2
:101370000000F07F0000F03F2DE9FF4F92461D4630
:1013800085B04FF00041DDE9124BDDE914727F1E9C
:1013900001EA4B50414940F0FF4940EA0108002171
:1013A00022F020004928049102D04E2828D04CE099
:1013B0003BA0012607C88DE80700A9690698641CB0
:1013C00088477F1E014606D41DF8060018B121F09B
:1013D000200181420BD0E96906988847032E34D05A
:1013E000082E32D06FF0010009B0BDE8F08F761CF6
:1013F000032E01D0082EE0D1601CCAF80000DCE703
:10140000A9690698641C88477F1E2AD420F0200012
:10141000412826D1A9690698641C88477F1E20D4DC
:1014200020F020004E281CD1A9690698641C88472A
:101430007F1E48F4002849F48009CAF8004001D40E
:10144000282806D0E969069888475FEACB7012D051
:1014500022E0A9690698641C88477F1E01D40028F1
:1014600003DAE96906988847BCE72928F1D1641CAA
:10147000CAF80040E9E71BF0240F07D02868049958
:10148000031D2B600068C0E9001805E02868021DF4
:101490002A600068C0F800902046A5E70000F07FB1
:1014A000494E46494E495459000000000149182050
:1014B000ABBEFEE726000200B2F120030AD5C2F15E
:1014C000200301FA02F120FA03F300FA02F041EAE4
:1014D0000301704700FA03F14FF0000070473A280B
:1014E00000D2303820F02002412A01D3A2F1370087
:1014F000884201D34FF0FF30704770475FEA400CDD
:1015000008BF91F0000F4FEA8C234FEAC12243EA53
:1015100051514FEA1C5018BF00F5F0404FEA30001F
:1015200018BF41F000415FEA6C5C00F02980BCF11B
:10153000FF3F08BF40F080407047130C06BF120405
:101540004FF0100C4FF0000C130E04BF12020CF100
:10155000080C130F04BF12010CF1040C930F04BF0D
:1015600092000CF1020CD30F04BF52000CF1010CDD
:1015700011464FF00002A0F11F00A0EB0C007047D5
:1015800011F0004F08BF704731F000413FF4D5AF74
:101590000B0C06BF09044FF0100C4FF0000C0B0EA3
:1015A00004BF09020CF1080C0B0F04BF09010CF178
:1015B000040C8B0F04BF89000CF1020CCB0F04BF8D
:1015C00049000CF1010CCCF12003A0EB0C0022FA35
:1015D00003F302FA0CF241EA030100F10100704743
:1015E00020F07F4C80EA030023F07F47ACEB070339
:1015F00003F57C5300F0004003F1FF032DE980491F
:101600004FEA154B09B44FEA144325EA0B4E24EA7E
:1016100003480FF2042606EB132749083E785FEAD9
:10162000320203FB0667C7F5000707FB06F64FEA21
:1016300054374FEAD64606F1020607FB066CCCF19A
:10164000005C4FEA1C472CEA074C07FB06F40CFB36
:1016500006F504EB15464FEA961634BF00204FF00E
:1016600000404FEAD13706FB07FC4FEA1C4C0CFB4D
:101670000BF7D21B03FB0CF761EB07010CFB0EF71A
:10168000B0EB074072EB17420CFB08F734BFA2EB3C
:101690000742B2EB074261EB17414FEA0C444FEAB5
:1016A000910706FB07FC4FEA1C4C0CFB0BF7B0EB59
:1016B000C74072EB573203FB0CF734BFA2EBC742B3
:1016C000B2EBC74261EB57310CFB0EF7B0EBC70032
:1016D00072EB57720CFB08F734BFA2EBC702B2EBF8
:1016E000C70261EB5771039F4FEA816141EA921192
:1016F00004EBCC044FEAD1374FEA826206FB07FCC9
:1017000042EA90124FEA80604FEA1C4C0CFB0BF748
:10171000D21B03FB0CF761EB07010CFB0EF7B0EBE0
:10172000074072EB17420CFB08F734BFA2EB0742ED
:10173000B2EB074261EB17414FEA8C554FEA910734
:1017400004EB9C2406FB07FC4FEA1C4C0CFB0BF73C
:10175000B0EBC74072EB573203FB0CF734BFA2EB80
:10176000C742B2EBC74261EB57310CFB0EF7B0EB4F
:10177000C70072EB57720CFB08F734BFA2EBC7022D
:10178000B2EBC70261EB577115EB4C254FEA816153
:1017900041EA92114FEA82624FEAD13742EA90124F
:1017A00006FB07FC44F100044FEA80604FEA1C4C42
:1017B0000CFB0BF7D21B03FB0CF761EB07010CFBD7
:1017C0000EF7B0EB074072EB17420CFB08F734BF83
:1017D000A2EB0742B2EB074261EB174115EB1C1578
:1017E0004FEA813141EA92414FEA823242EA904225
:1017F0004FEA80304FEA0C7644F1000448EA034394
:101800004EEA0B484FF0000EB2EB080C71EB0307E9
:1018100024BF624639464EEB0E0E4FF0000B001807
:10182000524149414BEB0B0BB2EB080C71EB030738
:101830007BF1000B24BF624639464EEB0E0E4FF093
:10184000000B0018524149414BEB0B0BB2EB080C5B
:1018500071EB03077BF1000B24BF624639464EEB68
:101860000E0E51EA020718BF46F0010616EB0E767F
:1018700055F1000254F1000103D5BDE88901BDE82E
:101880000088BDE88901BDE80048B619524141EB26
:101890000101A3F10103704780807F7E7D7C7B7A0C
:1018A0007978777676757473727171706F6E6E6D0C
:1018B0006C6C6B6A6A6968686766666564646363B2
:1018C00062616160605F5F5E5E5D5D5C5C5B5B5A38
:1018D0005A595958585757565655555554545353A5
:1018E00052525251515050504F4F4F4E4E4D4D4D00
:1018F0004C4C4C4B4B4B4A4A4A494949484848474B
:101900004747474646464545454444444443434388
:10191000434242424241414146EA0646A3F57053E2
:101920004FEA164646EA42564FEAD22242EA41526E
:1019300010B54FEAD121A3F1010300F017F820F010
:10194000004000F1010C00F0004701EB005011468F
:10195000BCF5006F40EA070000D210BD02484FF00E
:10196000000140EA070010BD0000F07F002B26D4E4
:10197000770021D01CB54FEA370703B44FF01000B1
:101980004FF010014FF000000FBCBDE810400BF10C
:10199000010BBBF1010F08BF5FEA170722BF12F16D
:1019A000010211F101014FF0004143F1000300F089
:1019B000004043EA00007047F9D35708DAE746EAE7
:1019C000064613F1400F4FEA16461FDD13F1200FB4
:1019D000DFBF16430A46002120335B42C8D0C3F163
:1019E000200746EA064602FA07F74FEA164646EA95
:1019F0000706C3F1200722FA03F201FA07F721FADA
:101A000003F14FF0000342EA0702B1E746EA02069B
:101A100046EA06464FEA164646EA0106BCBF46EAD3
:101A20000646360C4FF000034FF000024FF0000165
:101A30009EE72DE9C048934630B491E8380007C8C6
:101A400031EA400C48BF34EA430C03D5FFF7C8FD28
:101A5000FFF78CFFF0BCBDE800882DE9C048934635
:101A600030B491E8380007C831EA400C48BF34EA86
:101A7000430C03D5FFF7B4FDFFF74EFFF0BCBDE804
:101A800000882DE9C048934630B491E8380007C873
:101A900010F0804F08BF13F0804F03D100F019F809
:101AA000FFF764FFF0BCBDE800882DE9C04893460D
:101AB00030B491E8380007C810F0804F08BF13F029
:101AC000804F03D100F005F8FFF726FFF0BCBDE81A
:101AD000008820F07F4780EA030023F07F4C07EB6B
:101AE0000C03A3F57C5300F00040A3F1FE0392F039
:101AF000000F00F0B38095F0000F00F077802DE923
:101B000001494FEA11404FEA144621EA004800FB20
:101B100006FC24EA064708FB06F607FB08F800FB6C
:101B200007F718EB06484CEB164C4FEA124B18EB34
:101B300007484FEA15464CEB174022EA0B4E0BFBC9
:101B400006FC25EA06470EFB06F607FB0EFE0BFB1E
:101B500007F71EEB064E4CEB164C4FF000061EEB43
:101B6000074E4CEB174B18EB0B0840F1000018EB3D
:101B70000E0B58EB000840F100008F1A4FF00001E7
:101B80003CBFC943661B14BFB5EB040C00213CBF2E
:101B9000C943F61B4FEA17444EEA8E0E27EA044566
:101BA0004FEA1C4704FB07622CEA074C05FB07F7CA
:101BB0000CFB05F604FB0CFC16EB074642EB174248
:101BC00016EB0C4642EB1C421BEB060658EB0202DE
:101BD000414146EA9E0601D5BDE80189B619524148
:101BE00041EB0101A3F10103BDE801894FEA14456E
:101BF0004FEA114724EA054621EA074C05FB07F4A2
:101C000006FB07F70CFB06F105FB0CFC11EB07418B
:101C100044EB17444FEA124711EB0C4144EB1C44D0
:101C200022EA074C05FB07F206FB07F70CFB06F65A
:101C300005FB0CFC16EB074642EB174216EB0C4675
:101C400042EB1C456A1854F1000148BF7047B619B1
:101C5000524141EB0101A3F10103704795F0000FE0
:101C600037D04FEA11424FEA144721EA024624EAEC
:101C7000074C02FB07F106FB07F70CFB06F402FB1F
:101C80000CFC14EB074441EB17414FEA154714EBEA
:101C90000C4441EB1C4125EA074C02FB07F506FB0F
:101CA00007F70CFB06F602FB0CFC16EB074645EBB0
:101CB000174516EB0C4645EB1C42121951F1000179
:101CC00048BF7047B619524141EB0101A3F101032E
:101CD00070474FEA14454FEA114724EA054621EAC6
:101CE000074C05FB07F106FB07F70CFB06F24FF06C
:101CF000000605FB0CFC12EB074241EB174112EB0F
:101D00000C4251EB1C4148BF7047921841EB010156
:101D1000A3F101037047000070B5044600688168B4
:101D2000C943C90717D1816821F00101816000F022
:101D3000BBFC05460AE000BF00F0B6FC401B0228D1
:101D400004D920688068C043C00706D02068806836
:101D5000C043C007F0D0002070BDA06A40F0100062
:101D6000A062E06A40F00100E062012070BD000066
:101D700010B500F083F805F075F86FF00A0105F072
:101D800098FABDE81040014905F0B4B8DA0F4940AF
:101D90002DE9F0410446468900F070F80546801BA5
:101DA00000B2B0F5006F02DDA189491EA18110F5D6
:101DB000006F02DAA089401CA081284605F052F885
:101DC0006FF00B0105F075FA094F394605F092F8EE
:101DD0000646B4F90C0005F02DF8394605F08AF8EE
:101DE000314604F0D1FE65812061BDE8F08100003C
:101DF0000000B4432DE9F0414FF080414D6A174C8B
:101E0000217841B100212170FFF7C2FFC4E90150E0
:101E10000020BDE8F081FFF7BBFF0646A16805F092
:101E200071F907466068854201D3281A03E04FF62E
:101E3000FF71081A284405F015F8094905F05AF809
:101E40000146384604F014FFC4E90156054904F080
:101E50000FFFBDE8F04102F08BB900001C0000202C
:101E600017B7D1380000C040016036210171002150
:101E7000C180018141818181016170473EB5044685
:101E8000002001900C204FF0FF358DF808000095E0
:101E900020790123410002AA206800F0F7FD009597
:101EA00020790223410001AA206800F0C7FCBDF898
:101EB000040040BAC0F30B00E0803EBDFEE7000026
:101EC000014800F0EBB90000DC000020014800F000
:101ED000E5B90000E8040020014800F0DFB9000087
:101EE0002C05002030B590F840500124AC40C56B63
:101EF0006C60046863604368102B036803D09960CA
:101F00000068C26030BD9A600068C16030BD704733
:101F100072B6FEE7F8B50024009490F82420254618
:101F2000012A12D0012280F824204A681F23072AA0
:101F30000DD20668776B521E02EB820293409F43DC
:101F40000B6893401F43776319E00220F8BD0668D1
:101F50000D2A0AD2376BD21F02EB820293409F43B5
:101F60000B6893401F43376309E0F76A0D3A02EBB1
:101F7000820293409F430B6893401F43F7620A68B5
:101F8000072306680A2A0AD3F7680A3A02EB4202D4
:101F900093409F438B6893401F43F76008E0376985
:101FA00002EB420293409F438B6893401F4337618B
:101FB0000A68102A01D0112A20D1124B02689A42D5
:101FC00017D193681B0219D4936843F400039360FC
:101FD0000968102912D10C490C4A0968B1FBF2F1C9
:101FE00001EB8101490000E0491E00910029FBD16D
:101FF00004E0816A41F020018162012480F82450CC
:102000002046F8BD002401401800002040420F0087
:102010002DE9F0414FF0000704003D467ED0A06A54
:10202000002628B9E66284F82460204600F07EF895
:102030002046FFF771FEA16A01F01001014304D0B0
:10204000A06A40F01000A06268E0A16A21F4885103
:1020500041F00201A1626268E169237B0A4347EA19
:1020600043010A43A1684FF48077B94208D001299F
:1020700006D0002194F814C0BCF1010F02D00AE090
:102080003946F7E7F3B1A36A43F02003A362E36A9A
:1020900043F00103E3622368D3F804C02CF4694CD5
:1020A0004CEA010CC3F804C023689968DFF870C0DB
:1020B00001EA0C0111439960A168B9420BD00129D2
:1020C00009D00CE0DFF85CC0A3690CEB43330B4391
:1020D00043F40061DFE7218A0D05A5F5801521682D
:1020E000CB6A23F470032B43CB62216889680E4BC3
:1020F0001940914208D1E662A16A21F0020141F043
:102100000101A162BDE8F081A06A20F0020040F068
:102110001000A062E06A40F00100E0620120F1E7F7
:10212000FDF7E1FF00E0FFFFFE0E1FFF70B586B078
:1021300000260546009601960296039600681A4905
:1021400088422FD11949886940F4007088618869F4
:1021500000F400700490886940F004008861886988
:10216000694600F0040004903320009003200190A1
:102170000F4800F0A3F9104C0E48C4E90006802077
:10218000C4E9026040002061800060612020A061FD
:102190000002E061204600F02BF908B1FFF7B8FE1D
:1021A0002C62656206B070BD002401400010024040
:1021B0000008014008000240DC00002010B590F843
:1021C00021100022022905D00421816380F82020FB
:1021D000012010BD01680B6823F00E030B6001683D
:1021E0000B6823F001030B6090F84030C46B0121B1
:1021F00001FA03F3636080F8211080F82020104674
:1022000010BD000010B590F821100024022903D061
:102210000421816301243DE001680A6822F00E0276
:102220000A6001680A6822F001020A601A4A01681D
:10223000914201D1012121E0174A1432914201D18A
:1022400010211BE0144A2832914201D1891515E072
:10225000114A3C32914201D189140FE00E4A5032AA
:10226000914202D14FF4803108E00B4A643291422E
:1022700002D14FF4801101E04FF08071064A083A14
:102280005160012180F82110002180F82010416B5D
:1022900001B18847204610BD080002402DE9F05FDB
:1022A000C16B0C6801680B68D0F840C0042202FAC8
:1022B0000CF2494DDFF824A1494E4A4FDFF828B10E
:1022C000DFF828E122422CD05A072AD50A68920664
:1022D00003D40A6822F004020A600168A94201D10D
:1022E000042219E0514501D1402215E0B14202D14A
:1022F0004FF4806210E0B94202D14FF480420BE00B
:10230000594502D14FF4802206E0714502D14FF4C5
:10231000800201E04FF080622F4908394A60C16AAB
:102320003BE04FF0020808FA0CF818EA040F4FF0EF
:1023300000094FF0010235D05FEA837832D50B688F
:102340009B0605D40B6823F00A030B6080F821205C
:102350000168A94201D1022219E0514501D1202290
:1023600015E0B14202D14FF4007210E0B94202D13F
:102370004FF400520BE0594502D14FF4003206E011
:10238000714502D14FF4001201E04FF00072124982
:1023900008394A6080F82090816A00291AD0BDE887
:1023A000F05F0847082505FA0CF5254212D01B07F7
:1023B00010D50B6823F00E030B6090F84010C36B30
:1023C00002FA01F15960826380F8212080F82090A0
:1023D000016BE2E7BDE8F09F080002401C000240EC
:1023E0003000024044000240580002406C000240AD
:1023F00030B528B308C8134914221944B1FBF2F1CF
:102400008900C16310498163022141771A6843F64C
:10241000F0718A43D0E900142143D0E902452C43EE
:1024200021430469214344692143846921431143C1
:10243000196000214163012242770177084630BDCF
:10244000012030BDF8FFFDBF0000024070B504461A
:1024500090F82000002501280CD0012084F82000ED
:1024600094F821600020012E06D084F82000022577
:10247000284670BD022070BD022684F82160A0634A
:102480002068066826F0010606602046FFF72AFD50
:10249000E06A00282068016802D041F00E0106E0E1
:1024A00021F0040101602068016841F00A01016027
:1024B0002068016841F001010160D9E72DE9F84F7A
:1024C000DFF8B8910024A9F1040B23460F2709F186
:1024D000040AABF1040EC9E00125A5402A40AA4236
:1024E0007DD1674ED1F804C0ACEB0608B44532D0BC
:1024F00014DCBCF1030F3AD009DCBCF1000F2AD088
:10250000BCF1010F1CD0BCF1020F31D11DE0BCF1B8
:10251000110F17D0BCF1120F2AD119E0B8F5881F9E
:1025200019D006DCB8F5803F15D0B8F5801F1FD153
:1025300011E0B8F5001F0ED0B8F5041F18D10AE05D
:10254000CB6815E0CB681B1D12E0CB6808330FE0A9
:10255000CB680C330CE08B682BB1012B4FF00803D8
:1025600003D0456104E0042302E0056100E000239C
:10257000FF2A01D8064601E000F104064FEA84056F
:1025800001D9A5F12005D6F8008007FA05FC28EA54
:102590000C0803FA05F548EA0508C6F800804D68FE
:1025A000ED0062D5374DAE6946F00106AE61AD690A
:1025B00024F0030605F001050095334D06EB050CEC
:1025C000DCF80850A607360F07FA06F825EA0805D2
:1025D000DFF8B880404503D14FF0000817E044E031
:1025E000DFF8AC80404502D14FF001080FE0DFF882
:1025F000A480404502D14FF0020808E0DFF898803F
:10260000404502D14FF0030801E04FF0040808FAFA
:1026100006F848EA0508CCF808804D68D9F800604B
:10262000ED024D4601D5164300E096432E604D68FD
:10263000DAF80060AD02554601D5164300E0964336
:102640002E604D68DBF80060AD035D4601D5164392
:1026500000E096432E604D68DEF80060ED0375469D
:1026600001D5164300E096432E60641C0D682A468F
:10267000E5407FF431AFBDE8F88F00000804014069
:10268000000011100010024000000140000801404D
:10269000000C014000100140001401400AB101612A
:1026A00070470904FBE7000001488068704700009C
:1026B0000C00002070B5040025D094F83D000025E2
:1026C00020B984F83C50204600F076FA242084F8A3
:1026D0003D002068016821F0010101602068016867
:1026E00041F4004101602068016821F4004101606B
:1026F00000F052FC4D4A6168914201D84C4900E01B
:102700004C49884201D2012070BD4B492368B0FB7F
:10271000F1F15E6826F03F060E435E606368934207
:1027200006D94FF4967359434FF47A73B1FBF3F122
:102730002368491C1E6A26F03F063143196261680E
:10274000914210D84900401EB0FBF1F2521CC2F376
:102750000B02042A01D2042022E0B0FBF1F0401C5D
:10276000C0F30B001CE0A268F2B301EBC10303EB62
:102770000116431EB3FBF6F35B1C43F480431B05B9
:1027800049D092B301EBC10202EB0111401EB0FB34
:10279000F1F0401CC0F30B0040F4804040F40040D6
:1027A0002168CA694CF6FF739A431043C861D4E9A3
:1027B000071001432068026822F0C0021143016043
:1027C000D4E9030101432068826848F2FF339A4349
:1027D00011438160D4E9050108432168CA6822F0E9
:1027E000FF021043C86001E00EE016E020680168B7
:1027F00041F0010101602564202084F83D0025633B
:1028000084F83E50002070BD01EB4106431EB3FB2F
:10281000F6F35B1CB3E70120C2E701EB4101401E68
:10282000B0FBF1F0401CC0F30B00B7E7A08601003D
:1028300080841E0000093D0040420F002DE9F84F42
:102840000025DDF82890984617468A4604460095EC
:10285000FFF72AFF064694F83D0020287AD1192375
:10286000012286492046009601F078FB0028F5D128
:1028700094F83C0001286DD0012084F83C002068C9
:102880000168C90703D1016841F0010101602068B6
:10289000016821F400610160222084F83D001020CD
:1028A00084F83E0025646762A4F82A80608D208544
:1028B0007348E06233464A465146204601F05EFACC
:1028C00000287CD1208DDFF8BC81202768B1012849
:1028D00014D00228206801681ED041F48061016094
:1028E0002068416980690090BBE020684169816986
:1028F0000091016841F400710160B2E02068016854
:1029000021F48061016072B620684169816900919B
:10291000016841F400710AE041F40061016072B69F
:102920002068416981690091016821F4806101603A
:1029300062B696E0032865D801280CD002284B46E1
:102940004FF000024146204600960BD001F006FBF6
:10295000A8BB0CE090E032464946204601F0A4FBBB
:1029600068BB71E001F0FAFA48BB72B633E0206848
:10297000016821F48061016072B620680069616AB3
:102980000870606A401C6062208D401E2085608D4A
:10299000401E60853C4846F2A8110068B0FBF1F08B
:1029A000C0EBC00000EB80000090401E009007D0FC
:1029B00020684069C04340070DD50098F5E727E03F
:1029C00044F8305F6773A573206940F020002061F0
:1029D00062B625731CE02068016841F40071016053
:1029E00020680069616A0870606A401C6062218D1D
:1029F000491E2185618D491E618562B6216809697C
:102A0000017025E032464946204601F04DFB10B1E9
:102A10000120BDE8F88F20680069616A0870606A6B
:102A2000401C6062208D401E81B22185608D401E59
:102A3000608520684269D243520712D4032903D12A
:102A4000016821F48061016020680069616A087092
:102A5000606A401C6062208D401E2085608D401E93
:102A60006085208D00287FF465AF84F83D7084F880
:102A70003E5084F83C50CCE70220CAE70200100028
:102A80000000FFFF04000100180000202DE9F84FAE
:102A90001F4690468A460446DDF82890FFF704FE5C
:102AA000054694F83D0020287FD119230122404992
:102AB0002046009501F052FA002876D194F83C00A7
:102AC000012872D0012084F83C0020680168C90701
:102AD00003D1016841F0010101602068016821F41F
:102AE00000610160212084F83D00102084F83E0040
:102AF00000262664C4F824806785608D20852D48D3
:102B0000E0622B464A465146204601F0ADF990B9A5
:102B1000206841698069009036E02A46494620468F
:102B200001F0FAFA50B1206C042804D12068016841
:102B300041F4007101600120BDE8F88F606A2168EE
:102B400000780861606A401C6062618D491E618581
:102B5000218D491E89B2218522685369DB435B07B9
:102B60000BD451B100781061606A401C6062608DC6
:102B7000401E6085208D401E20852A4649462046FD
:102B800001F0C0F90028CED1208D0028C5D154F81D
:102B90003D0B016841F400710160202004F81E091A
:102BA000E67766770020C7E7FFE70220C4E700006A
:102BB000020010000000FFFF30B585B00021009139
:102BC0000191029103911E4D03681E4C12210322B4
:102BD0001D48AB4216D1A36943F00803A361A36962
:102BE000039203F008030493C023CDE90031694642
:102BF000FFF764FCE06940F40010E061E06900F474
:102C0000001019E0114DAB4217D1A36943F008033E
:102C1000A361A369039203F0080304934FF4406394
:102C2000CDE900316946FFF749FCE06940F48000D6
:102C3000E061E06900F48000049005B030BD000060
:102C40000054004000100240000C014000580040B9
:102C50000248816802781144816070470C000020AE
:102C6000074810B5016841F010010160032000F031
:102C700075F80F2000F006F800F024F8002010BDD1
:102C80000020024070B50D4D04464FF47A7128784B
:102C9000B1FBF0F00A490968B1FBF0F000F052FB1B
:102CA00048B9102C07D200222146501E00F036F8F9
:102CB00000206C6070BD012070BD00000C00002081
:102CC000180000200C4808B5816941F001018161BC
:102CD000816901F001010091C16941F08051C16138
:102CE000C06900F0805000900448416821F0E06124
:102CF00041F08061416008BD0010024000000140C9
:102D0000002809DB00F01F020121914040098000EA
:102D100000F1E020C0F8001170470000F0B40E4B45
:102D20001B680C46C3F30223C3F10705042D00D929
:102D30000425191D072901D2002300E0DB1E01260E
:102D400006FA05F1491E214099409E40761E164024
:102D50003143F0BC02F0CBB80CED00E0064900F0C6
:102D6000070208684FF6FF03184040EA0220034AB2
:102D700010430860704700000CED00E00000FA0509
:102D80002DE9F84305460078354CC00754D0E0697A
:102D90000026C00008D4E06940F08050E061E0699E
:102DA000012600F0805000902E480168C90512D419
:102DB0000168804641F480710160FFF775FC0746A9
:102DC00005E000BFFFF770FCC01B642823D8D8F8CB
:102DD0000000C005F6D5206A10F4407021D0A98803
:102DE00001F4407181421CD0206A1F49012220F465
:102DF00040700A6000220A602062C00711D0FFF70D
:102E000053FC074641F2883808E000BFFFF74CFC4E
:102E1000C11B414502D90320BDE8F883206A800721
:102E2000F4D5206A696820F44070084320621EB11E
:102E3000E06920F08050E0612878800705D560685F
:102E4000A96820F44040084360602878C00605D592
:102E50006068E96820F48000084360600020DBE7D8
:102E60000010024000700040400442422DE9F0474B
:102E70000F46050061D0434E306800F00700B842AD
:102E800009D2306820F0070038433060306800F025
:102E90000700B84251D128683B4C810712D5400742
:102EA00003D5606840F4E06060602878000703D5CF
:102EB000606840F4605060606068A96820F0F000CD
:102EC000084360602878C00728D06868012810D0BF
:102ED0002168022810D0890700292EDA616821F0C4
:102EE000030101436160FFF7DFFB804641F288394F
:102EF0000DE021688903EFE78901EDE7FFF7D4FBD7
:102F0000A0EB0801494502D90320BDE8F0876068BD
:102F1000696800F00C00B0EB810FEFD1306800F071
:102F20000700B8420BD9306820F007003843306002
:102F3000306800F00700B84201D00120E5E72878AA
:102F4000400705D56068E96820F4E06008436060E8
:102F50002878000706D56068296920F4605040EAA7
:102F6000C100606000F038F86168084AC1F30311DD
:102F7000515CC8400649086006480068FFF782FEB9
:102F80000020C2E700200240001002404C730008FD
:102F90001800002010000020044805490068496816
:102FA000044AC1F30221515CC84070471800002058
:102FB000001002405C730008044805490068496835
:102FC000044AC1F3C221515CC84070471800002078
:102FD000001002405C7300080E4A51680E4801F070
:102FE0000C03042B11D0082B0FD10C48C1F38343E1
:102FF000C903C05C0AD55168084AC1F34041921E1A
:10300000515C054A5043B0FBF1F070470449484316
:10301000704700000010024000127A003C73000864
:1030200000093D002DE9F84F040070D02078C04D14
:10303000C00749D06868C0F38100012807D06868DC
:10304000C0F38100022809D16868C00306D528684A
:10305000800339D560680028E7D035E06068B0F5B6
:10306000803F0BD010B1B0F5A02F11D0286820F40C
:1030700080302860286820F4802002E0286840F42E
:1030800080302860606890B1FFF70EFB06460AE0CA
:10309000286840F480202860F0E700BFFFF704FBB9
:1030A000801B642873D828688003F7D50CE0FFF7ED
:1030B000FBFA064605E000BFFFF7F6FA801B64281E
:1030C000F0D828688003F7D420789A4E80074FF014
:1030D00001094FF0000839D5686810F00C0F07D0CF
:1030E0006868C0F38100022809D16868C00306D46B
:1030F0002868800714D52069012808D110E02069CC
:10310000B0B1C6F80090FFF7CFFA074605E00AE134
:10311000FFF7CAFAC01B0228C4D828688007F7D571
:103120002868616920F0F80040EAC10028600DE0DD
:10313000C6F80080FFF7B8FA074604E0FFF7B4FAD4
:10314000C01B022823D828688007F7D420780007FE
:103150002CD57948A169D9B1C0F80090FFF7A4FA3D
:10316000074604E0FFF7A0FAC01B02280FD8686AE0
:103170008007F7D571484FF4FA510068B0FBF1F0C1
:10318000009000BF0098411E0091FAD20EE080E04E
:10319000C0F80080FFF788FA074604E0FFF784FADA
:1031A000C01B022875D8686A8007F7D420784007CA
:1031B00060D5E8690027C00008D4E86940F0805075
:1031C000E861E869012700F0805000905C480168E0
:1031D000C90513D40168834641F480710160FFF78B
:1031E00063FA824606E000BFFFF75EFAA0EB0A0032
:1031F00064284ED8DBF80000C005F5D5E06801284A
:103200000AD008B1052813D0286A20F001002862EE
:10321000286A20F0040002E0286A40F001002862D9
:10322000E06841F2883B98B1FFF73EFA82460BE036
:10323000286A40F004002862EEE700BFFFF734FA86
:10324000A0EB0A0159455AD8286A8007F6D50CE048
:10325000FFF72AFA824605E0FFF726FAA0EB0A01FB
:1032600059454CD8286A8007F6D41FB1E86920F088
:103270008050E861E06988B36968C1F3810102297F
:1032800044D00228C6F8608004D0FFF70DFA044647
:1032900038E034E0FFF708FA074604E0FFF704FAE5
:1032A000C01B02282BD828688001F7D4206AB0F50B
:1032B000803F05D16868A16820F400300843686049
:1032C000D4E908010843696821F47411084368606F
:1032D000C6F86090FFF7E8F9044606E025E000BF75
:1032E000FFF7E2F9001B022809D828688001F7D50A
:1032F0001BE000BFFFF7D8F9001B022802D903200A
:10330000BDE8F88F28688001F4D40EE00128F7D0DA
:103310006868226A00F48031914204D1616A00F445
:103320007010884201D00120EAE70020E8E70000A1
:103330000010024000004242800442421800002077
:103340000070004010B5401EB0F1807F01D3012015
:1033500010BD4FF0E02460610F21601701F0C7FD40
:103360000020A06107202061002010BD10B590F85A
:103370003C20012A22D0012280F83C20CA688C68B7
:1033800022F4407222434C6822F4806222430C688B
:1033900022F4006222430C6922F4805222434C69D9
:1033A00022F400522243C969002322F480420A43D6
:1033B00001684A6480F83C30002010BD022010BD36
:1033C00070B590F83C20012A26D0012480F83C40BA
:1033D000022280F83D2003685A689D6822F070063A
:1033E0000A6832435A600D4B02689A4208D0B2F123
:1033F000804F05D00A4B9A4202D00A4B9A4204D120
:10340000496825F080031943916080F83D40002110
:1034100080F83C10084670BD022070BD002C0140B1
:10342000000400400008004010B5040003D094F8E8
:103430003D0010B107E0012010BD002084F83C00E1
:10344000204600F01FF8022084F83D00211D20686E
:1034500001F092F9012084F8460084F83E0084F8D7
:103460003F0084F8400084F8410084F8420084F86A
:10347000430084F8440084F8450084F83D000020AF
:1034800010BD000008B50068B0F1804F08D10548B4
:10349000C16941F00101C161C06900F00100009003
:1034A00008BD00000010024090F83D10012901D035
:1034B00001207047022180F83D1000680B498842C6
:1034C00008D0B0F1804F05D00949884202D009499F
:1034D000884204D1816801F00701062903D0016800
:1034E00041F001010160002070470000002C014004
:1034F000000400400008004070B5044690F83C000D
:103500000025012817D0012684F83C60022084F8A9
:103510003D002068826822F0770222F47F428260B8
:103520000868502838D00DDC20284FD005DC90B337
:10353000102811D14AE0022070BD302846D0402822
:103540000AD13BE060282FD070280DD0B0F5805F05
:1035500003D0B0F5005F12D0012584F83D60002053
:1035600084F83C00284670BDCB68D1E90121206871
:1035700001F04BF92068816841F0770109E0CB68E0
:10358000D1E90121206801F040F92068816841F407
:1035900080418160E1E719E0CA684968206801F06C
:1035A000E9F95021206806E0CA684968206801F0FE
:1035B000F2F96021206801F032F9CEE7CA68496863
:1035C000206801F0D7F940212068F4E7226801461D
:1035D0001046F0E710B586B00021009101910291EC
:1035E00003911D4B02681D4902241D489A420ED1C9
:1035F0008A6942F004028A618969039401F0040136
:1036000004914FF4E061CDE9001469461FE0154BC9
:103610009A421ED18A6942F004028A618A6902F0E4
:10362000040204928A6942F008028A61896903945B
:1036300001F008010491C021CDE900146946FEF7AC
:103640003DFF0120CDE90004694607480394FEF7D9
:1036500035FF06B010BD0000002C014000100240F4
:103660000008014000040040000C014070B5044611
:1036700090F83C0000260D4601280FD0012084F868
:103680003C006AB1042A1DD0082A2FD00C2A3FD052
:103690000126002084F83C00304670BD022070BD39
:1036A000206801F0C5F82068816941F00801816156
:1036B0002068816921F004018161206881692A699B
:1036C000114311E0206801F0DBF82068816941F4C2
:1036D000006181612068816921F4806181612068D5
:1036E00081692A6941EA02218161D2E7206801F0FB
:1036F000F3F82068C16941F00801C1612068C1691F
:1037000021F00401C1612068C1692A69114311E0F7
:10371000206801F00DF92068C16941F40061C161C0
:103720002068C16921F48061C1612068C1692A698A
:1037300041EA0221C161ACE710B5040003D094F85E
:103740003D0010B107E0012010BD002084F83C00CE
:10375000204600F01FF8022084F83D00211D20685B
:1037600001F00AF8012084F8460084F83E0084F84D
:103770003F0084F8400084F8410084F8420084F857
:10378000430084F8440084F8450084F83D0000209C
:1037900010BD000008B50C4A01680C48914207D1E1
:1037A000816941F400618161806900F4006009E091
:1037B000074A914207D1C16941F00201C161C06964
:1037C00000F00200009008BD002C014000100240F3
:1037D0000004004010B50446022249B104290ED06D
:1037E000082913D094F84100012816D0012010BDFB
:1037F00094F83E000128F9D184F83E200FE094F8B7
:103800003F000128F2D184F83F2008E094F84000FE
:103810000128EBD184F8402001E084F84120012206
:10382000206800F0E5FF0F492068884203D1426C10
:1038300042F4004242642068884208D0B0F1804FD0
:1038400005D00949884202D00849884204D18168DC
:1038500001F00701062903D0016841F00101016070
:10386000002010BD002C0140000400400008004072
:10387000704710B504460068406994F84110C0F3E1
:10388000C010212911D180B12068143050E8001FE8
:1038900021F0800140E80012002AF5D1A06B08B1A8
:1038A000FEF78CFC204601F0EFF92068406994F89F
:1038B0004210C0F38010222911D180B12068143049
:1038C00050E8001F21F0400140E80012002AF5D125
:1038D000E06B08B1FEF772FC204601F0AEF9002063
:1038E00010BD7047F8B5016804460868CA684B699E
:1038F00010F00F0F4FF000055AD003F0010602F44C
:103900009077374365D0C10705D0D10503D5616CE9
:1039100041F001016164410705D5D90703D0616C0D
:1039200041F002016164810705D5D90703D0616CBC
:1039300041F004016164010707D502F02001314321
:1039400003D0616C41F008016164616C00293BD0D7
:10395000800604D5900602D5204601F0A3F9206820
:103960004069616CC0F3801001F0080101432046FA
:103970002BD001F062F920684069400621D520680B
:10398000143050E8001F21F0400140E80012002AE6
:10399000F5D1E06BA8B16D494163E06BFEF732FCF5
:1039A000002811D0E06B416B01B0BDE8F040084742
:1039B00083060ED593060CD52046BDE8F84001F0ED
:1039C00071B92046FFF78DFFF8BDFFF78AFF6564E8
:1039D000F8BD266B2023012E7CD1C6067AD5D606EB
:1039E00078D508684868009048694FF0020640069C
:1039F00040D5E16B086840680004000CE8D0A28D57
:103A00008242E5D9E085886920282DD020680C30D5
:103A100050E8001F21F4807140E80012002AF5D11F
:103A20002168143151E8000F20F0010041E8000244
:103A3000002AF5D12068143050E8001F21F0400121
:103A400040E80012002AF5D184F84230256320684E
:103A50000C3050E8001F21F0100140E80012002A4D
:103A6000F5D1E06BFEF7AAFB6663A08DE18D401AED
:103A700081B22AE0A08DE18D401A81B2E08D00284C
:103A8000A6D00029A4D022680C3252E8000F20F4FE
:103A9000907042E80007002FF5D12068143050E8FC
:103AA000002F22F0010240E80027002FF5D184F812
:103AB0004230256320680C3050E8002F22F01002BD
:103AC00040E80023002BF5D166632046FFF7D0FEC7
:103AD000F8BDFFE705062BD5150629D594F841005A
:103AE0002128F5D1A068B0F5805F01D12069B0B17F
:103AF000206A411C2162216800784860E08C401EE9
:103B00000004000CE084E3D12068C16821F080014A
:103B1000C1602068C16841F04001C160D8E7206AF7
:103B20000088C0F308004860206A801C2062E5E736
:103B30004006CDD55006CBD5CA68204622F04002BB
:103B4000CA6084F8413000F0F3F8C1E7F14A000898
:103B500070B5040004D094F84100002510B106E0CF
:103B6000012070BD84F84050204600F023F8242046
:103B700084F841002068C16821F40051C1602046EA
:103B800001F0F2F82068016921F490410161206898
:103B9000416921F02A0141612068C16841F4005166
:103BA000C1606564202084F8410084F842006563A8
:103BB000002070BD2DE9F04186B000240646009437
:103BC00001940294039400682E49884257D12E48EC
:103BD000C16941F40031C161C16901F4003104914E
:103BE000816941F0040181618069284D00F0040081
:103BF0000490042000900220019003200390694665
:103C00002846FEF75BFC0820CDE9000469462846FB
:103C10000294FEF753FC1F4D1D484FF08008C5E984
:103C20000004C5E902482020C701EF612C61C5E905
:103C300005402846FEF7DCFB08B1FEF769F9F5639D
:103C40006E62144D12484435143001C51020A5E8A9
:103C50001101104845F8104944306C61C5E9064728
:103C6000FEF7C6FB08B1FEF753F9B5630022114613
:103C700026206E62FFF752F82620FFF741F806B0C3
:103C8000BDE8F081004400400010024000080140FF
:103C90006C000240E804002090F84230202B01D054
:103CA0000220704721B11AB10023036301F0B8B8B4
:103CB000012070477047704770B5044690F8410086
:103CC000202801D0022070BD49B342B32162A284F2
:103CD000E28400206064212384F84130A56B114BFD
:103CE000AB62A56B104BEB62A56B104B2B63A36B08
:103CF0005863256813462A1DA06BFEF7A7FB2168B1
:103D00006FF0400008602068143050E8001F41F058
:103D1000800140E80012002AF5D1002070BD01208A
:103D200070BD0000EF4B0008314C0008014B00084B
:103D300000680349884202D1024900204870704758
:103D400000440040040000207047FEE701684A6913
:103D5000D24352050FD46FF480624A61002140F8CB
:103D6000301F202242738173026942F00402026113
:103D70000173012070470020704700002DE9F84FC3
:103D80000446C06A1E4693460D4621680A6842F4FE
:103D900080620A60082807D0012805D010F5803F0E
:103DA00002D0206B112804D12068016841F4807191
:103DB00001604FF001195B460022494620460096FB
:103DC00000F0CCF84FF4007840B120680068C005DE
:103DD00001D5C4F840800320BDE8F88F2069DFF8E2
:103DE00084A0B0F5804F0FD00620216800EAD517D7
:103DF00047F0F000086133465A460AF106012046B2
:103E000000F0F4F858BB03E0E8B240F001001CE019
:103E10002168E8B2086133465A465146204600F010
:103E2000E5F8E0B92068416981690091016841F4D1
:103E3000807101605B46002249462046009600F0F2
:103E40008DF80028C1D147F0F100216808613346A0
:103E50005A465146204600F0C9F80028BCD001203F
:103E6000BAE7000002000100F8B50446C06A1E4629
:103E70000D461746082807D0012805D010F5803FC9
:103E800002D0206B122804D12068016841F48071AF
:103E90000160134600224FF001112046009600F009
:103EA0005DF840B120680068C00502D54FF400708D
:103EB00020640320F8BD2069B0F5804F0ED00620A5
:103EC000216800EAD51040F0F000086133463A4618
:103ED0000B49204600F08AF878B902E005F0FE00B0
:103EE00000E0E8B221680861054933463A46891F77
:103EF000204600F07BF80028DCD00120F8BD00004F
:103F00000800010070B516460D4604461EE0204626
:103F1000FFF71CFF08B1012070BD681C16D0FEF72A
:103F2000C3FB801BA84200D885B920684069C04304
:103F300040070BD5002044F8300F20216173A07397
:103F4000216941F0200121612073E4E72068406984
:103F5000C0434007DBD4002070BD00002DE9F047CE
:103F6000984617460D460446C1F30746DDF82090F3
:103F70002AE000BFB8F1FF3F26D0FEF795FBA0EB8B
:103F80000901414502D8B8F1000F1DD12068012E6A
:103F900016D0806925EA00000004000C12D0002031
:103FA000B84211D1002044F8300F20216173A07372
:103FB000216941F02001216120730120BDE8F087D3
:103FC0004069E7E70120EBE72068012E0AD080690D
:103FD00025EA00000004000C06D00020B842C9D039
:103FE0000020EBE74069F3E70120F7E72DE9F04710
:103FF000984616460D4604464FF000094FF0200A39
:10400000C1F3074723E020684069C043400515D449
:104010002068016841F40071016021686FF48060DC
:104020004861C4F8309084F83DA084F83E90216C3B
:1040300041F00401216484F83C9021E0701C06D01A
:10404000FEF732FBA0EB0800B04203D816B1012FF7
:104050001FD021E02068012F15D0806925EA0000DB
:104060000004000C18D000BF44F8309F84F80DA065
:1040700084F80E90216941F02001216184F80C90B0
:104080000120BDE8F087406925EA00000004000C2B
:10409000EAD12068406901E02068806925EA0000D3
:1040A0000004000CAFD1ECE72DE9F041002590466B
:1040B0000E460446202728E04069C043C0060CD4C1
:1040C00054F8301B6FF01000486144F810596777BE
:1040D000A577206A2062257714E0FEF7E5FAA0EBC9
:1040E0000800B04200D886B920684069C043400645
:1040F0000BD544F8305F6773A573206940F020004A
:10410000206125730120BDE8F08120684169C94321
:104110004906D1D40020F6E770B516460D46044690
:104120001EE02046FFF712FE08B1012070BD681C9A
:1041300016D0FEF7B9FA801BA84200D885B92068CE
:104140004069C04300060BD5002044F8300F202101
:104150006173A073216941F0200121612073E4E7BC
:1041600020684069C0430006DBD4002070BD000019
:104170002DE9F0410646194F01F03EFC184C05466A
:104180002068281A02F06EFE164902F0B3FE0146BE
:10419000154AA0F50000904204D3C4E90056304609
:1041A000BDE8F081384602F0EFFC0146384602F0E7
:1041B0005FFD074601464FF07E5002F0A3FF3146F7
:1041C00002F098FE06463846616802F093FE3146DA
:1041D00002F0DAFCC4E90050E2E700009A99993E47
:1041E00068000020BD3786359B99193EFEB5002436
:1041F0002048009401941E49029401608915816051
:1042000004730475042505614FF460214460C161A5
:10421000FDF7FEFE08B1FDF77BFE0126CDE9004665
:10422000694614480294FDF775FE08B1FDF770FE6B
:104230000220CDE9006069460E48FDF76BFE08B12B
:10424000FDF766FE0320CDE9005069460948FDF7F9
:1042500061FE08B1FDF75CFE0520CDE90005694669
:104260000448FDF757FE002801D0FDF751FEFEBDC2
:1042700000240140AC000020114808B5416941F01C
:10428000010141614069002200F00100009001211C
:104290000B20FEF743FD0B20FEF732FD002201212B
:1042A0001020FEF73BFD1020FEF72AFD0022012121
:1042B0001120FEF733FDBDE808401120FEF720BDB8
:1042C000001002402DE9F04385B0002425480094F9
:1042D000019402940394816941F020018161816914
:1042E00001F020010491816941F00401816181693B
:1042F00001F004010491816941F008018161806944
:10430000DFF8648000F008004FF44045049001227B
:1043100029464046FEF7C2F9DFF850904FF4006797
:10432000002239464846FEF7B9F9A810CDE9000445
:10433000694640460294FEF7C1F800950226012521
:104340000396CDE9015469464046FEF7B7F8009759
:104350000396CDE9015469464846FEF7AFF805B02B
:10436000BDE8F08300100240000C0140000801404D
:104370000D4810B50B4901600C49416000214FF414
:1043800080428160C0E9031241618161C1610162C3
:10439000FEF790F9002803D0BDE81040FDF7B8BD46
:1043A00010BD00000054004020010020801A0600CB
:1043B0000D4810B50B4901600C49416000214FF4D4
:1043C00080428160C0E9031241618161C161016283
:1043D000FEF770F9002803D0BDE81040FDF798BD46
:1043E00010BD00000058004074010020801A060033
:1043F00010B592B000240F941C2168461094FBF76E
:1044000091FF202107A8FBF78DFF2848264901606E
:104410000821C0E90114FF21C0E903148021C0E98B
:104420000541FFF789F908B1FDF772FD0F940FA957
:104430001E481094FEF7C4FF08B1FDF769FD602027
:10444000CDE9000402940394049405940022694683
:1044500016480694FFF70AF908B1FDF759FD042242
:1044600069461248FFF702F908B1FDF751FD08222D
:1044700069460E48FFF7FAF808B1FDF749FD0794C1
:10448000089409944FF400500A94CDE90B4007A911
:1044900006480E94FEF76AFF08B1FDF739FD0348A0
:1044A000FFF798F812B010BD002C0140C8010020A1
:1044B00010B586B000241748009401940294039428
:1044C00004944FF080410594016041F61F41C0E91A
:1044D00001144FF6FF71C0E9031480218161FEF7DA
:1044E000A3FF08B1FDF714FD4FF48050009069461A
:1044F0000848FFF701F808B1FDF70AFD049404A984
:1045000004480594FEF75CFF002801D0FDF700FD8C
:1045100006B010BD1002002010B58AB00024079428
:104520001C2168460894FBF7FDFE1E481C49C0E9A3
:10453000001440F2CF21C0E9024180210461816171
:10454000FFF7FAF808B1FDF7E3FC079407A915484F
:104550000894FEF735FF08B1FDF7DAFC6020CDE9DD
:1045600000040294002269460E480494FFF77EF886
:1045700008B1FDF7CDFC042269460A48FFF776F83A
:1045800008B1FDF7C5FC082269460648FFF76EF83A
:1045900008B1FDF7BDFC0348FFF71CF80AB010BDD9
:1045A00000040040580200200C4810B50A49016080
:1045B0004FF4E1314160002181600C22C160C0E90B
:1045C00004128161C161FFF7C3FA002803D0BDE87E
:1045D0001040FDF79DBC10BD00440040A004002029
:1045E000FEE77047704730B5DDE9034580E83E00DF
:1045F00030BD00002DE9F84F0B4605463C4C1146F6
:10460000184602F07FFD8146FEF74EF8216880468D
:10461000401A02F027FC374902F02AFB834649463C
:10462000286802F067FC00904846A16802F0ACFAE6
:1046300006464FF0FF3102F03CFE696802F05AFC7A
:10464000594602F057FC616802F09EFA0746304670
:10465000A96802F04FFC594602F00AFB8246E8685E
:10466000394680F00046009802F08EFA514602F07A
:104670008BFA314602F00AFC03D2E86880F000466B
:104680000CE03946009802F07FFA514602F07CFABD
:104690000646E96802F0FAFC00D2EE68E1683046AE
:1046A00002F030FD594602F0E3FA8246296902F031
:1046B000EDFC286906D2594602F01CFCE16802F0C4
:1046C00063FA0CE080F00040514602F0DFFC07D2B4
:1046D0005946286902F00EFCE16802F008FD064622
:1046E000C4E90296C4E900873046BDE8F88F0000AF
:1046F0005800002000007A447047FEF7A9BA30B590
:1047000093B028216846FBF70DFE14210AA8FBF799
:1047100009FE002501200F951095119501041295B1
:104720008DE8230004904FF4E010CDE90810022436
:1047300007946846FEF776FC08B172B6FEE70AA950
:104740000F2081E831004FF48060CDE90D05022192
:104750000AA8FEF78BFB08B172B6FEE74FF40040E3
:1047600011900F940FA8FEF70BFB002801D072B632
:10477000FEE713B030BD7047F0B50268194B1A4C14
:104780001A4D4FF08047984205D0B84203D0A0425E
:1047900001D0A84203D122F070064A683243984201
:1047A00005D0B84203D0A04201D0A84203D122F4E0
:1047B0004074CA6822434C6922F08002224302609E
:1047C0008A68C2620A688262984201D109690163FB
:1047D000012141610169C90703D0016921F001018B
:1047E0000161F0BD002C01400004004000080040C1
:1047F00010B501F01F030121046A99408C43046243
:10480000016A9A401143016210BD10B5846842EA02
:10481000032224F47F440A432243826010BD82684D
:1048200022F070020A4342F00701816070470000E5
:1048300030B5036A026A22F00102026242688469AA
:1048400024F073050C682C4323F002058B682B437E
:104850000A4DA8420BD123F00805CB6822F4407220
:104860002B434D6923F0040315438A692A434260B0
:10487000846149684163036230BD0000002C01403F
:1048800030B5026A036A23F0100303624368846947
:104890000D6824F4E64444EA05248D6822F02002E1
:1048A00042EA05120B4DA8420ED1CD6822F08002DB
:1048B00042EA05124D6923F4406343EA85038D699A
:1048C00022F0400243EA85034360846149688163C2
:1048D000026230BD002C014030B5036A026A22F446
:1048E000807202624268C46923F4007324F0730585
:1048F0000C682C438D6843EA05230C4DA8420ED169
:10490000CD6823F4006343EA05234D6922F4405245
:1049100042EA05128D6923F4806342EA051242607F
:10492000C4614968C163036230BD0000002C0140CE
:1049300030B5046A026A22F4805202624268C36996
:104940000D6823F4E64343EA05238D6824F40054FC
:1049500044EA0534064DA84204D14D6922F4804250
:1049600042EA85124260C36149680164046230BD55
:10497000002C014010B5036A046A24F001040462AB
:10498000846924F0F00444EA021423F00A020A4382
:104990008461026210BD10B5036A046A24F0100439
:1049A0000462846923F0A00324F4704444EA0232D0
:1049B00043EA01118261016210BD000000487047A6
:1049C000A0030020014880887047000004000020F8
:1049D00010B54FF4807421460A48FBF7A3FC0A4B3C
:1049E00000205880988018700649224601F5007012
:1049F000FFF752F905480068C16841F01001C16035
:104A000010BD0000A002002004000020A00400202F
:104A10000548002141808180017004494FF4807273
:104A200001F50070FFF738B904000020A002002053
:104A300010B50A4C6278521E0A420AD048B10122CF
:104A400062700A4601460648FFF736F918B10020A1
:104A50006070002010BD012010BD00000400002087
:104A6000A0040020024841780029FCD170470000D2
:104A70000400002038B51A4800680168C943C90617
:104A80002CD40168406800901548FEF7F2FE1448E7
:104A9000483000684068134C80B2C0F58070A08038
:104AA000A0884FF4807580B1A088A8420DD8A28854
:104AB0000D4901F58070FBF7E1FBA088A288C0F5E5
:104AC00080710A481044FBF70BFC012020702A4635
:104AD000BDE8384004490248FFF7DEB838BD0000A1
:104AE000A004002004000020A0020020A003002059
:104AF00010B5406A0021C185C184FEF7F2FE10BDE9
:104B000070B5446A2068406994F84110C0F3C01041
:104B10000025212904D118B1E584204600F0B4F81D
:104B20002068406994F84210C0F38010222904D113
:104B300018B1E585204600F080F8606C40F0100068
:104B400060642046FEF7CDFE70BD10B50146406A98
:104B5000096809684FF0000289062ED4C2850168F1
:104B60000C3151E8003F23F4807341E80034002CFD
:104B7000F5D10168143151E8003F23F0010341E809
:104B80000034002CF5D10168143151E8003F23F0C6
:104B9000400341E80034002CF5D1202180F8421078
:104BA000016B012909D101680C3151E8003F23F064
:104BB000100341E80034002CF5D14263016B012958
:104BC00002D0FFF777F810BD818DFEF751FE10BDC2
:104BD00010B5406A01214163016B012902D0FFF742
:104BE0006AF810BD818D4908FEF742FE10BD10B570
:104BF0000146406A09680968890616D40021C18403
:104C00000168143151E8002F22F0800241E80023AE
:104C1000002BF5D101680C3151E8002F42F0400221
:104C200041E80023002BF5D110BDFFF781F810BD3E
:104C300010B5406AFFF788F810BD01680C3151E8E3
:104C4000002F22F4907241E80023002BF5D1016877
:104C5000143151E8002F22F0010241E80023002B1B
:104C6000F5D1016B012909D101680C3151E8002F00
:104C700022F0100241E80023002BF5D1202180F81A
:104C8000421000210163704701680C3151E8002F88
:104C900022F0C00241E80023002BF5D1202180F84A
:104CA0004110704708B590F84210222901D0022027
:104CB00008BD82684FF480539A4201D1016921B145
:104CC000816A9A421BD04AB10AE00268816A52683E
:104CD000C2F308020A80816A891C08E0026972B185
:104CE0000268526802F07F020A70816A491C816280
:104CF000C18D491E0904090CC18503D01BE002685F
:104D00005268F1E70168CA6822F02002CA600168AF
:104D1000CA6822F48072CA6001684A6922F00102FE
:104D20004A61202180F8421000214163026B012A70
:104D300003D0FEF7BFFF002008BD016301680C31FE
:104D400051E8002F22F0100241E80023002BF5D19A
:104D500001680A68D20602D50A6849680091818D07
:104D6000FEF786FDE7E7000070B5044600680169BC
:104D7000E26821F44051114301612169A0680843B0
:104D8000616908432168CA6841F20C639A4302438F
:104D9000CA6020684169A26921F4407111434161F0
:104DA0001E492068884202D1FEF706F901E0FEF7AD
:104DB000F3F800EBC00101EB001260686421800091
:104DC000B2FBF0F3B3FBF1F36FF018067343B2FBE1
:104DD000F0F5B2FBF0F605EB8305322303EB051586
:104DE000B5FBF1F5B6FBF1F605F0F00505EB0615A0
:104DF000B2FBF0F6B2FBF0F0B0FBF1F06FF018028E
:104E0000504306EB800003EB0010B0FBF1F021688B
:104E100000F00F002844886070BD00000038014099
:104E200038B58162044682850020134660642222E0
:104E300084F84220E56B1B4AAA62E56B1A4AEA62D3
:104E4000E56B1A4A2A63E26B50630A462168E06BFD
:104E5000091DFDF7FBFA2068016840680090206991
:104E600048B120680C3050E8001F41F4807140E8E0
:104E70000012002AF5D12068143050E8001F41F0DC
:104E8000010140E80012002AF5D12068143050E8F2
:104E9000001F41F0400140E80012002AF5D1002037
:104EA00038BD00004B4B0008D14B0008014B0008F7
:104EB00010B5FFF7DFFDBDE810400148FEF712BD59
:104EC000A0040020FEE7490050EAC12018BF0420DA
:104ED0004A0D18BF40F0010040F2FF72B2EB515F83
:104EE00008BF40F00200012808BF052070470907ED
:104EF000090E002804DB00F1E02080F80014704760
:104F000000F00F0000F1E02080F8141D7047000051
:104F10002DE9F74F144694B00021C4E90211159908
:104F2000079121F00045C9498D4206DC1599C4E975
:104F3000000117B00020BDE8F08FC549DFF814A3C9
:104F4000A9423CDD0799C44E0029C44FC44A1599B3
:104F5000534619DD01F002FD554506D0C14AC24B4A
:104F600001F0FCFCC4E900010AE04FF0D352BE4B53
:104F700001F0F4FC32463B4601F0F0FCC4E90001CC
:104F800017B00120BDE8F08F00F034FF554506D082
:104F9000B44AB54B00F02EFFC4E900010AE04FF01F
:104FA000D352B14B00F026FF32463B4600F022FFC1
:104FB000C4E9000117B04FF0FF30BDE8F08FAB49F6
:104FC000A942159978DB21F0004183468846A84A1A
:104FD000A84B01F0F5F90022A74B00F00BFF01F000
:104FE00059F9099001F085F906460F469C4A534647
:104FF00001F0E6F943465A4601F0BEFB80468A4678
:10500000984A994B3046394601F0DAF92A0D0125C4
:105010000B924246534601F0AFFB032DC4E9000159
:1050200039D00B98C1F30A51401A05EB45111139DB
:10503000814230DA9148C346784400EB0510CDF840
:105040000CA00C90D0E900233046394601F0B8F9A5
:1050500002460B46049106905846039901F07EFCE7
:1050600080468A4602460B465846039901F076FC74
:10507000049B069A01F072FC83460C980391394612
:10508000D0E90223304601F09BF95A46039B01F018
:1050900065FC6D1CBDE707980028A2BF099817B0F2
:1050A000BDE8F08F616881F000416160099817B038
:1050B0004042BDE8F08FFFE784461598C1F3130125
:1050C000C0F30A50A0F2F5304FEA601800F01F0656
:1050D000C6F12000139000200690079041F4801E36
:1050E00005206D4676B1664A08EB00017A4452F815
:1050F000213002EB8101B3404A68139922FA01F191
:10510000194305E05F4908EB0002794451F8221089
:10511000A1FB0E27A1FB0C131A449A4234BF0123B2
:10512000002303EB070A05EB8003D3E901B70F4423
:105130008F4234BF0121002193448B4411B1934528
:1051400002D903E0934501D2012100E00021C3E927
:1051500001B7514445F82010011EA0F10100C1DC47
:105160000298059F00F10050800F12900298DDE92F
:105170000356800001F0BDF8834628460D9101F0EA
:10518000CFF86FF01D0202F066F8CDE90E0130464F
:1051900001F0C6F86FF03D0202F05DF880468A46E5
:1051A000384601F0BDF86FF05D0202F054F8074692
:1051B00042465346119100F01DFEDDE90E2300F03A
:1051C00019FE5A460D9B00F015FE00250E465A4664
:1051D00028460D9B01F0C2FBDDE90E2301F0BEFB6A
:1051E0004246534601F0BAFB3A46119B01F0C4FA1D
:1051F000DFF898A0244A534601F0E2F807468846B3
:10520000234A244B3146284601F0DAF83A46434611
:1052100000F0F0FD074688464FF0A842534631465D
:10522000284601F0CDF83A46434600F0E3FD159AD2
:1052300012F0004F04D0129A81F0004152421292B3
:10524000C4E90001129817B0BDE8F08FFB21E93FD7
:105250007CD90240FB21F93F7370032E8A19A33BCE
:10526000000040543163621A61B4D03DFB213941E2
:1052700083C8C96D305FE43F0000E03F5C2300005D
:10528000D8220000BA220000182D4454FB21F93D19
:105290003326A611460B113C2DE9FF4D21F00048A5
:1052A00007460C46B8F1795F08DA00F0F3FF0028F2
:1052B00001BF0020324904B0BDE8F08D3A462346D4
:1052C0001046194601F07CF8054602462D480E4668
:1052D0000B460621784400F05DF82A46334601F07B
:1052E0006FF8DDE9022382468B463846214601F0FD
:1052F00067F804460F4652465B462846314601F0A1
:105300005FF822463B4601F029FB07468A464FF0EC
:10531000FF322846314601F09EFF1B4A90450ADACB
:105320003A46534601F01AFB04B00022BDE8F04DA6
:10533000134B01F021BA154A4245A8BFA8F5001544
:105340004FF00004B8BF124D22462B4601F006FB79
:105350000646884622462B460020094901F0FEFAFF
:1053600004460D463A4653463046414601F0F6FAA9
:1053700004B022462B46BDE8F04D01F0FDB9000017
:105380000000F03F902000003333D33F0000E93F9E
:105390000000D23F2DE9F0414F1E00EBC70104464B
:1053A000D1E9000115461E4637F006020DD02A4607
:1053B000334601F005F87F1E04EBC703D3E9002351
:1053C00000F018FD37F00602F1D1022F25D0042F8E
:1053D00013D0062F18BFBDE8F0812A46334600F0EF
:1053E000EFFFD4E90A2300F005FD2A46334600F01A
:1053F000E7FFD4E9082300F0FDFC2A46334600F01D
:10540000DFFFD4E9062300F0F5FC2A46334600F01E
:10541000D7FFD4E9042300F0EDFC2A46334600F020
:10542000CFFFD4E9022300F0E5FC2A46334600F022
:10543000C7FFD4E90023BDE8F04100F0DBBC000069
:105440002DE9FF4D054621F0004084B00C46B0F137
:10545000795F0BDA2846FFF736FD042808BF00F015
:1054600075F8284608B02146BDE8F08D2A460B465F
:10547000104600F0A5FF06460F462A46234600F0D8
:105480009FFF804626488A4632463B46052178449F
:10549000FFF780FF83461098029160B3214A224BA8
:1054A0004046514600F08CFFCDE900015A46404687
:1054B0005146029B00F084FF82468846DDE90601E2
:1054C0004FF0FF3201F0C7FE5246434601F046FA64
:1054D00032463B4600F074FFDDE9062301F03EFA58
:1054E000DDE9002301F03AFA08B02A462346BDE878
:1054F000F04D01F041B90B465A463046394600F0AE
:105500005FFF084A084B00F075FC4246534600F026
:1055100057FF08B02A462346BDE8F04D00F06ABCAC
:10552000CE1F0000495555555555C5BF012201F004
:1055300092BE002213461046114600F017BD40F2FD
:10554000013200204FF0E04101F085BE024A002008
:10555000110701F080BE000001FDFFFF10B50446F9
:10556000D1E9000100F002F8206010BDF8B5044652
:105570000D466A4600F02AF900987E300090002817
:105580001FDC002213462046294600F047FE18D0B3
:10559000002140F608004FF000000646204629464C
:1055A00000F0F6FB044640F6080006EA00014FF062
:1055B000000034F0004004BF0220FAF7E2FE20466B
:1055C000F8BD0098FF280DDB0220FAF7DAFE002272
:1055D00013462046294601F099F88CBF04484FF045
:1055E000FF40F8BD20462946BDE8F84000F0D0BB9A
:1055F000000080FF10B504460A46D4E900031946AE
:1056000000F010F9C4E9000110BD000010B5074911
:105610000446C86A896A484301F00CFC214601F03F
:1056200069FCBDE8104000F00BB800002800002025
:1056300030380A2801D2012070470020704700004E
:1056400010B501F075FA4FF08042074B00F074F886
:1056500000F09EFBB0F5000F04DABDE810400349EE
:1056600001F092BA10BD0000FB211940DA0FC940C9
:1056700030B583B00446FAF77FFE05460020CDE939
:105680000000024621466846FBF7CAF82846FAF7AA
:1056900078FEDDE9000103B030BD000000B5244B09
:1056A00021F0004287B09A42DCBF0022134629DD78
:1056B000204B9A4208D140B94FF00100FAF761FE41
:1056C000FFF737FF07B000BD03DBFFF72FFF07B081
:1056D00000BD02AAFFF71CFC10F0030104BF0DF18E
:1056E000080C9CE80F000DD0012001290ED00229E2
:1056F00014D00DF1080C00909CE80F00FFF7A0FEFD
:1057000007B000BDFFF7C8FD07B000BD0DF1080CE4
:1057100000909CE80F00FFF793FE05E00DF1080CE8
:105720009CE80F00FFF7B8FD07B081F0004100BD15
:10573000FB21E93F0000F07F70B514461D460E4680
:10574000002814BF01210021314321F00041C1F1A3
:105750007F6101F1E041C90F16D1002C14BF012176
:105760000021294321F00041C1F17F6101F1E041B5
:10577000C90F09D11449B1EB460F08BF00281CD04E
:10578000690008BF002C18D0314600F011FF024616
:1057900040F2FF7030EA11500DD0F017B0EBE17F0E
:1057A00009D0084665F31E0084460B462046614634
:1057B00000F0E2FF0246104670BD0120FAF7E1FD5D
:1057C000BDE87040FFF7B5BE0000E0FF10B514461D
:1057D00000222260114A21F000439342A8BF10BD6D
:1057E00053EA000208BF10BDB3F5801FA8BF2268AE
:1057F00007DA362201F02FFD6FF0350221F0004369
:105800002260DFF81CC06FF31E510CEB23531A44C7
:1058100041F0FF5141F00051226010BD0000F07FC7
:1058200002FCFFFF2DE9F04106460C4640F2FF75F1
:10583000174635EA14502BD000221346304600F0AC
:10584000EDFC25D03A463046214601F004FD0646DF
:105850000C4635EA145010D000221346304600F0B2
:10586000DDFC15D10220FAF78CFDFFF76FFE0A462A
:10587000214662F31E01BDE8F0810220FAF781FDA6
:10588000FFF75DFE0A46214662F31E01BDE8F08186
:1058900030462146BDE8F0811CB5FDF7E1F9FEF781
:1058A0002EFFFEF70FFDFEF7E7FCFEF79FFCFEF76D
:1058B0009FFDFEF75DFDFEF77BFDFEF72DFEFEF77B
:1058C00073FEFEF7F5FD3E48FDF7EEFDFFF780F8AD
:1058D0003C493D48FCF7C8FA3C4DDFF8F4803D49AF
:1058E0003948CDE90085444600230A461438FEF7BE
:1058F0007AFE35480023384A38492838CDE9004532
:10590000FEF771FE0122D1023548FCF7C7FE0021E7
:105910003448FDF75FFF04213248FDF75BFF0821A3
:105920003048FDF757FFDFF8C090304D2648FCF7B0
:105930001FFA07462448FCF75DFA064680F000424D
:10594000214829682838FEF755FE04463846FFF7F7
:105950005DFE02464C4501D94C4602E0444500DD5F
:1059600044462046002100F0DFF8FFF72BF888B10D
:10597000FFF728F80446FFF721F800210155FFF74B
:1059800077FE00F005FA286004211848FFF750F868
:10599000FFF73EF8304601F0CBF802460B4614A163
:1059A0006846FAF723FCFFF75DF808216846FFF721
:1059B0003FF8FFF757F802210EA0FFF739F8B5E7D7
:1059C0001002002020010020980000200050C34752
:1059D0000000C0400AD7233C0AD7A33CF4FD543C46
:1059E00000080140C80100200000C0C000000020E5
:1059F000256600000D0A000070B572B6FCF754FE73
:105A00004FF0E024A16922696569C2F3004212B136
:105A1000FCF74AFEA16962B6064A074B691A12688A
:105A2000B3FBF2F2514300EB4002C2EBC01001EBBA
:105A3000C00070BD1800002040420F002DE9F05F4B
:105A4000DFF8D480354D14460E460746404501D355
:105A5000002704E0296801F019FB00D22F68B9463D
:105A60004746BE4201D3002605E03046296801F0D2
:105A70000DFB00D22E68BC4201D3002405E0204675
:105A8000296801F003FB00D22C686968A2468B46A6
:105A9000484601F0EDF84FF07E54B84201D30020A3
:105AA00002E0A04200DD20468046E86159463046CB
:105AB00001F0DEF8B84201D3002002E0A04200DD90
:105AC0002046064628625946504601F0D1F8B842B1
:105AD00001D3002002E0A04200DD20466862104FA2
